:0200000460009A
:100000004643464200000156000000000103030081
:1000100000000000000000000000000000000000E0
:1000200000000000000000000000000000000000D0
:1000300000000000000000000000000000000000C0
:1000400000000000010408000000000000000000A3
:100050000000800000000000000000000000000020
:100060000000000000000000000000000000000090
:100070000000000000000000000000000000000080
:10008000EB04180A063204260000000000000000FD
:10009000050404240000000000000000000000002F
:1000A0000000000000000000000000000000000050
:1000B0000604000000000000000000000000000036
:1000C0000000000000000000000000000000000030
:1000D00020041808000000000000000000000000DC
:1000E0000000000000000000000000000000000010
:1000F0000000000000000000000000000000000000
:10010000D8041808000000000000000000000000F3
:100110000204180804200000000000000000000095
:1001200000000000000000000000000000000000CF
:10013000600400000000000000000000000000005B
:1001400000000000000000000000000000000000AF
:10015000000000000000000000000000000000009F
:10016000000000000000000000000000000000008F
:10017000000000000000000000000000000000007F
:10018000000000000000000000000000000000006F
:10019000000000000000000000000000000000005F
:1001A000000000000000000000000000000000004F
:1001B000000000000000000000000000000000003F
:1001C000000100000010000001000000000000001D
:1001D000000001000000000000000000000000001E
:1001E000000000000000000000000000000000000F
:1001F00000000000000000000000000000000000FF
:10020000FFFFFFFFFFFFFFFFFFFFFFFFFFFFFFFFFE
:10021000FFFFFFFFFFFFFFFFFFFFFFFFFFFFFFFFEE
:10100000D10020434D1600600000000000000000E9
:101010002010006000100060002C04600000000040
:10102000000000600038040000000000FFFFFFFF28
:10103000FFFFFFFFFFFFFFFFFFFFFFFFFFFFFFFFC0
:10104000FFFFFFFFFFFFFFFFFFFFFFFFFFFFFFFFB0
:10105000FFFFFFFFFFFFFFFFFFFFFFFFFFFFFFFFA0
:10106000FFFFFFFFFFFFFFFFFFFFFFFFFFFFFFFF90
:10140000814205D051F8043B40F8043B8242F9D8B0
:10141000704700BF044A05494FF0000342F8043BFF
:101420009142FBD8704700BFC04E012000E0012070
:101430002DE98848BFF34F8F00BF00BF00BF00BF3A
:1014400000F000FA684B0822C3F8542100BF00BF27
:1014500000BF00BF00BF00BF00BF00BF00BF00BF94
:1014600000BF00BF00BF00BF00BF00BF5F4A6049B0
:101470006048FFF7C5FF604A60496148FFF7C0FF59
:10148000604CFFF7C7FF4FF470004FF0E0210023DE
:101490005D4AC1F8880D44F823200133B02BFAD1FE
:1014A0005A4B80215A4A03F8011B9342FBD14FF05B
:1014B000E0254D4E4FF08039DFF884B1DFF884A18C
:1014C0004FF0FF31C5F8084D0027C6F80491C6F863
:1014D00000B1C6F8F490C6F8F0A0D5F8243DDFF8C6
:1014E000688143F4E0234B4AC5F8243DD8F81C300A
:1014F00023F07F0343F04003C8F81C30D8F82430B1
:1015000023F07F0343F04003C8F824309166D1668E
:101510001167516700F09EF93F4B4049A363404B70
:10152000E36363236B610323AF612B613D4BC5F81C
:10153000203DD5F8FC3D43F08073C5F8FC3D3A4BA7
:101540001A6842F001021A605B680B6000F0CCFB85
:10155000C6F804913548C6F800B1C6F8F490C6F84C
:10156000F0A000F031FDD8F86C10314B314A41F455
:101570004051C8F86C101F60C3F80871C3F81871A7
:10158000C3F82871C3F83871936BDB0708D442F6AF
:101590001563294951651365936B43F00103936308
:1015A000244A264C936843F00113936000F0DAF963
:1015B00000F01EF900F020FD00F0C4FB00F044F93B
:1015C0002368132BFCD900F055FC2368B3F5967FF4
:1015D000FBD300F03DF900F039F900F009FD00F00F
:1015E000EFFC30BFFDE700BF00800D40D8B7020020
:1015F0000022006000000000C04E0120DCD9026023
:1016000000000020004C0120210C020000E400E05A
:10161000A0E400E000C00A404120020034DF0120C5
:101620004520020000002020001000E00046C323F7
:101630000040084000400D400000C05638DF012047
:101640001B1018200C0D111300C00F40054B4FF458
:101650002A01054A05485A641864054A9963954663
:10166000FFF7E6FE00C00A40FFAFAAAA070020006D
:101670000000052043690A4A03EB011010B4037A05
:10168000084C02EB0313D3E901321460C2681A60FC
:1016900003690BB142691A605DF8044B704700BFE3
:1016A000A033002061F801004369027E03EB0212BF
:1016B00092F808C08C451CD01A7AFF2A19D09142A2
:1016C00010B5044616D01A7EFF2A06D00121D3E9B0
:1016D000002312681A4201D1217610BD064B052263
:1016E000204603EB0C135B681A60FFF7C3FF2176FB
:1016F000F3E770470021EAE7A033002043690A4A74
:1017000003EB011010B490F82830084C02EB0313DF
:10171000D3E901321460C26A1A60036B0BB1426BE9
:101720001A605DF8044B7047A033002061F8010097
:101730004369427E03EB021292F828C08C451ED00A
:1017400093F82820FF2A1AD0914210B5044617D0EA
:1017500093F83820FF2A06D00121D3E9002312682C
:101760001A4201D1617610BD064B0522204603EBDB
:101770000C135B681A60FFF7C1FF6176F3E77047EF
:101780000021EAE7A0330020164942698B6B23F45D
:101790007C0343F4802370B58B630446124DD2E979
:1017A00000130A681A4303690A60022200211A61C1
:1017B0000E4A19619A6401225A629D624FF43035D3
:1017C000DD624FF001159E6C1E6519629D651A6100
:1017D000017EFFF74FFF617E2046BDE87040FFF7B6
:1017E0008DBF00BF00C00F40B80B05053B3728195F
:1017F000104BA020104AD96E41F4403110B4D96684
:1018000040F23764D96E41F44071D96654649064F3
:10181000936C1B06FCD4094A40F23761A023516443
:101820009364936C13F08003FBD1054A13705DF849
:10183000044B704700C00F4000400C4000800C403B
:1018400098DF0120704700BF704700BF704700BF9E
:1018500000BF704710B44FF0E0230021102431483E
:10186000C3F8941DC3F89C4D1124C3F8A00D2E4855
:10187000C3F89C4D1224C3F8A00D2C48C3F89C4D0E
:101880002B4AC3F8A00D2B4C42F015022A48C3F88E
:101890009C4DC3F8A00D294C2948C3F89C4DC3F8B2
:1018A000A00D284CC3F89C2D2748284AC3F8A04D0A
:1018B000C3F89C0DC3F8A02D02F5A022244C0C32D5
:1018C0002448C3F89C4DC3F8A02D234AC3F89C0DAF
:1018D000224CC3F8A02D02F14062C3F89C4D204871
:1018E000C3F8A02D0C32C3F89C0DC3F8A02D00BF87
:1018F00000BF00BF00BF00BF0122C3F8942DBFF39B
:101900004F8FBFF36F8FC3F8501FBFF34F8FBFF3DD
:101910006F8FD3F8142D5DF8044B42F44032C3F8B6
:10192000142D70473F000010250008070900100023
:1019300000E0012013002000210002071400002015
:1019400025000813090000101600202027000B13A3
:1019500017000040180000602F000B0719000070EE
:101960001A000080F0B5B84B1822B84E0120B84FCD
:1019700083B0C3F85C62B749C3F86072B64DC3F870
:101980006462A6F53046B54CC3F86862C3F86C5281
:10199000C3F87052C3F87452C3F8785248F20C7509
:1019A000DA661A675A679A67DA67C3F88020C3F85D
:1019B0008420C3F88820C1F82C03A94AC1F8300359
:1019C000C1F83403C1F83803C1F83C03C1F850032F
:1019D000A169A44B0A40A448A4491343A44AA361A3
:1019E000D4F8843043F00C03C4F884304FF0FF3453
:1019F000036843F00203036003682B404FF4005573
:101A00001A439C4B026044608A689B4C13409B4A7B
:101A100043F000538360C36823F07803C360036A14
:101A2000134023430362036A1340954A2343954CB2
:101A300043628262C2620022D1F8B83023F03F03D1
:101A400043F00103C0F8B830D1F8BC308E4923F020
:101A50003F0343F00103C0F8BC3040F2056302616C
:101A600005660467C0F88030456644670224C0F804
:101A70008430036823F0020303608161834B84494F
:101A8000C46143F8042B8B42FBD1774A136843F0BF
:101A900001031360136813F00103FBD17A4802219C
:101AA00040F2F564906140F29940D16140F26641A4
:101AB000C2F8004242F20144C2F810127549C2F85D
:101AC0002002C2F8301240F235417348C2F8344265
:101AD000C2F84012714CC2F8500242F20120704923
:101AE000C2F854120121C2F86042C2F864025E4892
:101AF000C2F8A030C2F8A430C2F8B0104369DA07C7
:101B0000FCD5012300244FF4803257494361C0F8CB
:101B1000A040C0F8A420C0F8B0304B69DB07FCD56A
:101B2000012300244FF400304F4A4B61C1F8A0401C
:101B3000C1F8A400C1F8B0305369DF07FCD5012318
:101B40000024584848495361C2F8A040C2F8A40094
:101B5000C2F8B0304B69DE07FCD5D1F8003145F64C
:101B60000D5221209BB24861934265D100244FF46D
:101B7000802201233C48C1F8A040C1F8A420C1F84C
:101B8000B0304369DD07FCD501234FF40004002188
:101B9000354A4361C0F8A040C0F8A410C0F8B03086
:101BA0005369DC07FCD501234FF400044FF4803067
:101BB0002D495361C2F8A040C2F8A400C2F8B03069
:101BC0004B69D807FCD501234FF400044FF40030D3
:101BD000254A4B61C1F8A040C1F8A400C1F8B0305B
:101BE0005369D907FCD501234FF400042D481E4941
:101BF0005361C2F8A040C2F8A400C2F8B0304B69EB
:101C0000DA07FCD5D1F8003145F60D5221209BB200
:101C10004861934250D008254FF400042249002027
:101C2000224B234A009015705A1A0123214822445E
:101C300000F0D6F903B0F0BD1E4B0022C3E900222C
:101C4000C3E9022203B0F0BD00801F40F9B00100DB
:101C5000F910010000841F40F970010000C00F401E
:101C6000FFFCFF1F000300A000402A4000802A4024
:101C70001200FFFFFF37F7004000008000FFF07CFC
:101C8000FF000F8363000200F05AF05A00422A401E
:101C900000432A409F041830EB06180A3806180A39
:101CA00006320126040003000000007000000070EE
:101CB00099DF0120E8DA01204FF400044FF480227C
:101CC00001230848C1F8A040C1F8A420C1F8B030F1
:101CD0004369DB07FCD5012310254FF08074436175
:101CE0009CE700BF00402A40F0B4154A40274FF45B
:101CF00080314FF480564FF400554FF4404443F286
:101D00004200136913F0020F0ED113F4005F0FD0DD
:101D100013F4805F0ED0002BF3DA13F4803F0BD165
:101D20005B060BD5F0BC7047946151619061E8E7A8
:101D30005561E6E75661E4E79161E2E75761E0E764
:101D400000800D403F4A03203F49F3EE095AD2F884
:101D500080304FF0000C9FED3D6A23F001039FEDB2
:101D60003C5A30B4C2F88030C2F89000D1F8E0108C
:101D7000384DCBB2384C39482B6007EE903A0B0DFA
:101D8000C1F30B21F8EEE77A06EE903A07EE101A4F
:101D9000334BB8EEC77A2160F8EEE66A314937EE88
:101DA000C66A37EEC55A76EEC76A77EEE57A26EE52
:101DB000266AC3ED006A25EE265AD2F8803067EE17
:101DC000A64AC0ED007AC6EE275A274885EE276A54
:101DD000C4EEA76A75EE875AFCEEE55A36EE076A3E
:101DE00015EE904ABCEEC66A43EA045376EE877A53
:101DF000C2F8803016EE103AD2F89041FCEEE77A45
:101E000001EA0341214317EE903AC2F89011C3F35F
:101E10000B03D2F890110B431449C2F89031D2F859
:101E2000803043F00203C2F88030114B80F840C08C
:101E3000C1F840314FF0E023012230BCC3F8082143
:101E4000704700BF00810D4000441F400000AA42BF
:101E50000000B44258DE012054DE01205CDE012087
:101E600068DE01200000FF0F00E400E0004C0120CC
:101E7000090E0200314B40F6617210B5C3F8202103
:101E800040F2044400F0A8F82D4A2E49D2F88030E0
:101E90002D4843F00303C2F880302C4BC1F8604159
:101EA00002681A4203D1D1F8A8319A071BD0254AFB
:101EB0004FF00041244B5963D2F8403143F0020304
:101EC000C2F84031D2F840319B07FBD44FF40030C8
:101ED0004FF0E0211C4B4FF00042C1F88C0219205A
:101EE0009A6300F075F8184A4FF08040154C0021B5
:101EF00090630A20164B11604FF42072C4F8A801B9
:101F0000184600F071F84FF4800203464FF4810048
:101F100040F243111860C4F858311A640D4B0E4A50
:101F2000C4F84811C3F804224FF0E0224FF4003106
:101F30000123C2F80C11C4F8403110BD00800D40DF
:101F400000C00F4000002E4000900D40001C1E00FD
:101F500000000020004C0120F10F020008B50E4BDC
:101F60001B6E9B0700D4FBBE72B60C4B00200C4AC4
:101F7000C3F8400103F160430A49A3F55F231164EC
:101F80009D46BFF34F8F4FF400130748074ADB69A4
:101F900002609B68984700BF00441F4000002E402D
:101FA00000C00A400300200000802020000012EB47
:101FB000F8B500BFF8BC08BC9E46704700000000A2
:101FC0005FF800F03D0202005FF800F049F8010000
:101FD0005FF800F039FB01005FF800F061170200C4
:101FE0005FF800F0D52002005FF800F02149020000
:101FF0005FF800F0F95002005FF800F02D0B0200CE
:082000006904000005A10000C5
:1020080080C00F400000000319000000100000000D
:10201800E8841F4001000000FF000000FF000000EE
:102028000000000000000000180000001000000080
:10203800E4841F4001000000FF000000FF000000D2
:1020480000000000000000001F000000D5C10000D3
:1020580070C00F40000C00001100000011000000CB
:10206800E0841F40020000002C0000001200000065
:10207800E0841F4001000000100000001100000073
:10208800DC841F40020000002D0000001200000048
:10209800DC841F40010000001E000000C9C10000D0
:1020A80070C00F40C00000001200000013000000C4
:1020B800D0841F4001000000FF000000FF00000066
:1020C80000000000000000001300000013000000E2
:1020D800CC841F4001000000FF000000FF0000004A
:1020E80000000000000000001C000000BDC100004E
:1020F800160355005300420020005300650072008B
:10210800690061006C000000180354006500650058
:102118006E00730079006400750069006E006F003E
:102128000403090409026200030100C032080B001D
:102138000202020100090400000102020100052454
:1021480000100105240101010424020605240600EB
:10215800010705820310001009040100020A0000AB
:10216800000705030240000007058402400000093B
:1021780004020002FF6AFF00070581024000010710
:10218800050102400001000009026200030100C0CD
:1021980032080B00020202010009040000010202D9
:1021A8000100052400100105240101010424020690
:1021B8000524060001070582031000050904010033
:1021C800020A000000070503020002000705840256
:1021D8000002000904020002FF6AC7000705810225
:1021E8000002010705010200020100000A060002C0
:0821F800EF02014001000000AC
:1022000000000000000000000000000000000000CE
:1022100000000000000000000000000000000000BE
:102220000A49D1E900231344824298BF984234BF3F
:102230000123002308D28B68801AB0FBF3F203FB62
:102240001200B0FA80F35B0918467047204701205E
:102250000346024A00201A60704700BF4441012033
:102260000120704770B5054608460E46FFF7D8FFB7
:1022700038B34FF400121C4B2946D0691A68006924
:102280009B68B21A04690020A047184BB0FA80F48A
:1022900005461B686409022B01DC204670BD41F233
:1022A0004E721349134B032007F096F9124B134A51
:1022B00031461348002D08BF1A4607F0D3F92046CF
:1022C00070BD0A4B04461B68002BE6DD094B41F24A
:1022D00046720749012007F07FF93146094807F0A7
:1022E000C1F9204670BD00BF204701202C460120C7
:1022F000D8630020982C0020FC5B0020005C0020AC
:10230000285C0020085C002001231A46013B002ABB
:10231000FBD17047064908B5D1F8E0309A0705D4DB
:10232000FFF7F2FFD1F8E0309B07F9D508BD00BFF9
:1023300000802A402DE9F04F2DED028BADF5077D91
:10234000044600AF07F11803F9607A607B6172B64A
:1023500007F11400FFF77CFF002847D16F4E7A6821
:10236000F368B2FBF3F503FB1525002D4CD1336860
:10237000A34200F2A780FB687A689A189342BA6079
:1023800080F0BA801D461FE03368FA68A4EB0309A9
:1023900093424BD94FF4001341464A46D8692B4625
:1023A0000069D0F808800020C047F368B0FA80FACE
:1023B0001D444FEA5A1A1C44BB68AB4294BF002329
:1023C0000AF00103002B61D02046FFF729FFD7F860
:1023D00014800028D8D021464046FFF743FF8246AC
:1023E0000028D1D14E4B1B68022B7CDC4FF0000A39
:1023F0004C4B1B7803B962B6504607F50777BD46CC
:10240000BDEC028BBDE8F08F454B1B68002BEDDD6A
:10241000454B41F26B7245498246012007F0DCF8DA
:10242000F2687968424807F01DF9E1E76B46F06809
:1024300008EE103A20F00303800803F1070323F0AD
:102440000703ADEB030D6B4607EE903A0ED005EB9C
:102450008000A5F1040BA3F1040A0438FFF75AFF2A
:102460005BF8043F58454AF8043FF7D14FF4001099
:1024700017EE903A41464A46C0690069D0F8088094
:102480000020C04718EE103A9D468EE7244B804648
:102490001B68022BACDD244B41F2957223490320CB
:1024A00007F09AF8B8F1000F224A234B12BF4FF001
:1024B000000A4FF0010A1346224679681F4807F0C8
:1024C000D1F895E7164B1B68002B8FDD164B41F2B8
:1024D0006F720120154907F07FF821461848AA4677
:1024E00007F0C0F884E7104B41F295720F490320C2
:1024F00007F072F8104BDFE7094B1B68022B02DC78
:102500004FF0010A74E7084B41F295720749032026
:1025100007F062F84FF0010A064BCDE72047012093
:102520002C460120B0DF0120A42C0020D86300201D
:102530004C5C0020FC5B0020005C0020885C0020DC
:10254000685C0020B2B12DE9F041074688461D467F
:102550001646002408EB040138192C442A46FFF7DC
:10256000E9FEA642F6D84FF0E023054AC3F80C2D49
:10257000BDE8F0814FF0E023014AC3F80C2D70470D
:102580000400FA05F8B54FF084439D695A69154077
:102590000DD0254F01269D6195FAA5F4B4FA84F477
:1025A00057F8243006FA04F49847A543F4D11F4B9A
:1025B0009D695A6915400DD01D4F01269D6195FA00
:1025C000A5F4B4FA84F457F8243006FA04F49847D2
:1025D000A543F4D1174B9D695A6915400DD0164F8C
:1025E00001269D6195FAA5F4B4FA84F457F82430D5
:1025F00006FA04F49847A543F4D1104B9D695A6933
:1026000015400DD00E4F01269D6195FAA5F4B4FA40
:1026100084F457F8243006FA04F49847A543F4D11B
:10262000BFF34F8FF8BD00BFA84301200040004218
:102630002844012000800042A844012000C000423C
:10264000284501200548064B1B1AD90F01EBA301B1
:10265000491002D0034B03B118477047C04E012008
:10266000C04E01200000000008B5054B1BB1054914
:102670000548AFF30080BDE80840FFF7E3BF00BFA7
:10268000000000009CDD012000380460704700BF9E
:10269000704700BF704700BF00207047034B1868A9
:1026A00010B103681B681847704700BF94D501201C
:1026B0004FF0E023014AC3F80C2D70470400FA05DF
:1026C000002070472DE9F04100F5804090B0574C54
:1026D0009646574B0094C0F860121B6A5548C3F3E6
:1026E00001230468403304F080746B4413F8406C99
:1026F000514B03FB06F60368B6FBF1F2B6FBF2F5AD
:1027000043F0A0434D1B03600368DF01FCD5052A9D
:102710004FF0000C2AD96046831C0130B2FBF3F75E
:10272000192F07FB03F3F7D84FF00108B6FBF3F3BB
:10273000CB1A002BB8BF5B42AB420BDBA7F10C03FB
:1027400018BF4FF00008062B0AD8B8F1000F07D0C9
:102750008446E1E71D46A7F10C038446062BF4D915
:10276000052FD9D80CF10103B2FBF3F2B5F5967F32
:10277000A2F105024CDC142A4AD802EB42022F4F88
:102780006E46DFF8B08002F14003BEF1020F0DEBA0
:1027900003050FCF0FC60FCF0FC60FCF0FC697E899
:1027A0000F0007C626F8023B4FEA1343337015F8B3
:1027B0003F3C15F83E2C4FEAC34315F8401C4FEA46
:1027C000024203F4601301F0070102F4E02243EA3D
:1027D000020343EA010343F4800343EA0C6343F436
:1027E0008043C8F80430D8F8043014BF23F008033D
:1027F00043F00803C8F804303CB90E4A136823F0CC
:10280000805313601368DB01FCD410B0BDE8F08185
:10281000002CFAD1074A136823F080531360136821
:10282000D901FCD410B0BDE8F08100BF3C185000C5
:1028300000C00F4000801D4040420F0048060020AD
:102840000020704700207047082070470346104A58
:10285000102110B590B0DC78029407A89C78019400
:102860005C78009405AC1B7813F020FD002307A9C9
:1028700020460F93CDE90B33CDE90D3316F0A0FBC5
:102880000BAA94E8030017F0D7FC0B9810B010BD0A
:10289000D423002010B5002184B0064C4FF4FA7206
:1028A000002300910448CDE9014113F051F904B02F
:1028B00010BD00BFB1040000F8DA012010490B6818
:1028C000486B0A68496B02F07F02C1F30361013271
:1028D0000431B2EB410F10D303F07F03C0F3036068
:1028E000053B0130A3EB4003DBB2054A106800F062
:1028F0007F000130C01AC0B270470023F5E700BF67
:1029000000801D4030B585B086460DF1040C8CE882
:102910000E0090F86E5090F86F402B190A2B01D9D9
:102920000B3B9BB2DAB263460B2C02EB820203CB69
:102930000EEB420C1B884EF81200CCF80410ACF8D9
:10294000083004D001348EF86F4005B030BD013539
:10295000EDB20B2D03D08EF86E5005B030BD0023C4
:102960008EF86E3005B030BD90F86F3093B1934261
:1029700010D390F86E301A440A2A88BF0B3A02EB43
:10298000820200EB420350F812005A6808604A6065
:102990001B890B81704700BF69B170B505460846B9
:1029A0000C4624F00DFF2B680246214628465B6842
:1029B000BDE8704018477047F8B5064600F11605A7
:1029C00000F12207EC1E14F8011F012300223046FB
:1029D0000BF0A6FEAC42F6D1E51CBD42F2D130466A
:1029E000F8BD00BF2DE9F84F18212048DFF8888096
:1029F00001244FF0000B1E4EDFF880A01D4FDFF8C2
:102A0000809021F011FB01E018F801BF33685A46AD
:102A1000514638461D1995F838502B445B7C1EF002
:102A200017FD31680C2238460B1993F8383002FB39
:102A3000031154311EF0BEFC35685946002205EBE7
:102A4000040C95F83330013448469CF838C065448E
:102A50006D7CEB1A18BF01230BF062FE072CD3D15B
:102A60000448BDE8F84F1EF0D7BC00BFF02000209E
:102A7000ACDB012030330120CC2300200C210020CE
:102A8000B4DD01202DE9F041144C94F89850C5F1C3
:102A90009605002D01DCBDE8F08194F895600027D3
:102AA00094F8961026440E48013196F8018021448E
:102AB000777024F0C3FD042D86F80180EBDD94F8D7
:102AC000915094F892102544064801316E782144C3
:102AD0006F7024F0B3FD6E70BDE8F081B4DC0120AE
:102AE00008D3012014D3012008B5074B1B7803B984
:102AF00008BD5821054821F097FA054B054819787B
:102B0000BDE808401EF07CBCB2DF01207419002033
:102B1000B4DC01203033012010B5114C0A460146C7
:102B2000206814F003FD98B91A210E4821F07CFAB0
:102B30000D481EF071FC1FF053F90C4B1A7B22B1AB
:102B4000D3E90021521A02441A6000221A7310BD00
:102B500020680021026D483012F08AFAEBE700BFCE
:102B6000FCDE0120D019002030330120F4D20120F6
:102B700038B50D4604461FF033F9084A084B0121C9
:102B8000D26B586092F884201973042A00D038BDA3
:102B900029462046BDE83840FFF7BEBFF8DA0120DD
:102BA000F4D2012038B5044649B108460D4624F058
:102BB00007FE2368024629465B6820469847204660
:102BC000BDE838401EF028BC2DE9F84305460F4605
:102BD00026480421144621F027FA00231022E97820
:102BE00023481EF043FC0121224821F01DFAE97818
:102BF00000230A221E481EF039FC02211E4821F043
:102C000013FA34B1204624F0DBFD0146204621F0C2
:102C10000BFA204624F0D4FDC4B2132C08D8174E6A
:102C2000013401213046E4B221F0FEF9142CF7D131
:102C30007E1E3A4612490E481EF00AFC042E12DD92
:102C40000424DFF84090DFF828800C4F2A5D01341F
:102C500049464046E4B21EF0FBFB0121384621F014
:102C6000E3F9B442F2DBBDE8F88300BF542600204C
:102C7000303301205C260020602600200850002010
:102C800064260020702600200729026C10B5044637
:102C9000ADF5147D08D0002104F138000DF5147D48
:102CA000BDE8104012F0E4B9531EB3F5107FF2D224
:102CB000816B04A803921FF0C9FB039A114B1146C4
:102CC00011480A22019004A800925A1F1DF094FD99
:102CD000024604A9204692B2039214F027FC039AFC
:102CE00030B1002104F1480012F0C2F9226CD2E7A1
:102CF0001321064821F098F905481EF08DFB039A30
:102D0000EFE700BF814601208417002094170020C0
:102D100030330120044BDB6B93F88430042B01D15A
:102D2000FFF7B2BF704700BFF8DA0120254BD3F898
:102D3000C020D2E90010D3680968006810B41842B6
:102D4000946801EA040134D0137C03F0030309BB47
:102D500043F008039908013B11740D2B0ED8DFE8EE
:102D600003F0100722070D1C10101C0D072207107E
:102D70005169137E01390133516113765DF8044BBB
:102D80007047137E51690133013113765DF8044BAE
:102D90005161704743F00403DAE753695DF8044B6F
:102DA000C83B5361704753695DF8044BC8335361A6
:102DB0007047137C03F003030029CBD043F00403D6
:102DC000C8E700BFC8D50120254BD3F8C420D2E9FD
:102DD0000010D3680968006810B41842946801EACA
:102DE000040134D0137C03F0030309BB43F0080350
:102DF0009908013B11740D2B0ED8DFE803F0100782
:102E000022070D1C10101C0D072207105169137E9C
:102E100001390133516113765DF8044B7047137E1D
:102E200051690133013113765DF8044B51617047EC
:102E300043F00403DAE753695DF8044BC83B536180
:102E4000704753695DF8044BC83353617047137C76
:102E500003F003030029CBD043F00403C8E700BF0D
:102E6000C8D50120254BD3F8C820D2E90010D3687B
:102E70000968006810B41842946801EA040134D06B
:102E8000137C03F0030309BB43F008039908013BDB
:102E900011740D2B0ED8DFE803F0100722070D1C6C
:102EA00010101C0D072207105169137E01390133E0
:102EB000516113765DF8044B7047137E51690133FD
:102EC000013113765DF8044B5161704743F0040300
:102ED000DAE753695DF8044BC83B536170475369A7
:102EE0005DF8044BC83353617047137C03F0030350
:102EF0000029CBD043F00403C8E700BFC8D50120A8
:102F0000254BD3F88020D2E90010D3680968006807
:102F100010B41842946801EA040134D0137C03F021
:102F2000030309BB43F008039908013B11740D2BFF
:102F30000ED8DFE803F0100722070D1C10101C0D3F
:102F4000072207105169137E01390133516113764D
:102F50005DF8044B7047137E5169013301311376DC
:102F60005DF8044B5161704743F00403DAE753699D
:102F70005DF8044BC83B5361704753695DF8044BDF
:102F8000C83353617047137C03F003030029CBD08F
:102F900043F00403C8E700BFC8D50120254BD3F890
:102FA000CC20D2E90010D3680968006810B4184238
:102FB000946801EA040134D0137C03F0030309BBD5
:102FC00043F008039908013B11740D2B0ED8DFE87C
:102FD00003F0100722070D1C10101C0D072207100C
:102FE0005169137E01390133516113765DF8044B49
:102FF0007047137E51690133013113765DF8044B3C
:103000005161704743F00403DAE753695DF8044BFC
:10301000C83B5361704753695DF8044BC833536133
:103020007047137C03F003030029CBD043F0040363
:10303000C8E700BFC8D50120254BD3F8A020D2E9AE
:103040000010D3680968006810B41842946801EA57
:10305000040134D0137C03F0030309BB43F00803DD
:103060009908013B11740D2B0ED8DFE803F010070F
:1030700022070D1C10101C0D072207105169137E2A
:1030800001390133516113765DF8044B7047137EAB
:1030900051690133013113765DF8044B516170477A
:1030A00043F00403DAE753695DF8044BC83B53610E
:1030B000704753695DF8044BC83353617047137C04
:1030C00003F003030029CBD043F00403C8E700BF9B
:1030D000C8D50120254BD3F8D020D2E90010D36801
:1030E0000968006810B41842946801EA040134D0F9
:1030F000137C03F0030309BB43F008039908013B69
:1031000011740D2B0ED8DFE803F0100722070D1CF9
:1031100010101C0D072207105169137E013901336D
:10312000516113765DF8044B7047137E516901338A
:10313000013113765DF8044B5161704743F004038D
:10314000DAE753695DF8044BC83B53617047536934
:103150005DF8044BC83353617047137C03F00303DD
:103160000029CBD043F00403C8E700BFC8D5012035
:10317000254BD3F8B820D2E90010D368096800685D
:1031800010B41842946801EA040134D0137C03F0AF
:10319000030309BB43F008039908013B11740D2B8D
:1031A0000ED8DFE803F0100722070D1C10101C0DCD
:1031B000072207105169137E0139013351611376DB
:1031C0005DF8044B7047137E51690133013113766A
:1031D0005DF8044B5161704743F00403DAE753692B
:1031E0005DF8044BC83B5361704753695DF8044B6D
:1031F000C83353617047137C03F003030029CBD01D
:1032000043F00403C8E700BFC8D50120254BD3F81D
:10321000B020D2E90010D3680968006810B41842E1
:10322000946801EA040134D0137C03F0030309BB62
:1032300043F008039908013B11740D2B0ED8DFE809
:1032400003F0100722070D1C10101C0D0722071099
:103250005169137E01390133516113765DF8044BD6
:103260007047137E51690133013113765DF8044BC9
:103270005161704743F00403DAE753695DF8044B8A
:10328000C83B5361704753695DF8044BC8335361C1
:103290007047137C03F003030029CBD043F00403F1
:1032A000C8E700BFC8D50120254BD3F8B420D2E928
:1032B0000010D3680968006810B41842946801EAE5
:1032C000040134D0137C03F0030309BB43F008036B
:1032D0009908013B11740D2B0ED8DFE803F010079D
:1032E00022070D1C10101C0D072207105169137EB8
:1032F00001390133516113765DF8044B7047137E39
:1033000051690133013113765DF8044B5161704707
:1033100043F00403DAE753695DF8044BC83B53619B
:10332000704753695DF8044BC83353617047137C91
:1033300003F003030029CBD043F00403C8E700BF28
:10334000C8D50120254BD3F8D420D2E90010D3688A
:103350000968006810B41842946801EA040134D086
:10336000137C03F0030309BB43F008039908013BF6
:1033700011740D2B0ED8DFE803F0100722070D1C87
:1033800010101C0D072207105169137E01390133FB
:10339000516113765DF8044B7047137E5169013318
:1033A000013113765DF8044B5161704743F004031B
:1033B000DAE753695DF8044BC83B536170475369C2
:1033C0005DF8044BC83353617047137C03F003036B
:1033D0000029CBD043F00403C8E700BFC8D50120C3
:1033E000254BD3F8A420D2E90010D36809680068FF
:1033F00010B41842946801EA040134D0137C03F03D
:10340000030309BB43F008039908013B11740D2B1A
:103410000ED8DFE803F0100722070D1C10101C0D5A
:10342000072207105169137E013901335161137668
:103430005DF8044B7047137E5169013301311376F7
:103440005DF8044B5161704743F00403DAE75369B8
:103450005DF8044BC83B5361704753695DF8044BFA
:10346000C83353617047137C03F003030029CBD0AA
:1034700043F00403C8E700BFC8D50120254BD3F8AB
:10348000A820D2E90010D3680968006810B4184277
:10349000946801EA040134D0137C03F0030309BBF0
:1034A00043F008039908013B11740D2B0ED8DFE897
:1034B00003F0100722070D1C10101C0D0722071027
:1034C0005169137E01390133516113765DF8044B64
:1034D0007047137E51690133013113765DF8044B57
:1034E0005161704743F00403DAE753695DF8044B18
:1034F000C83B5361704753695DF8044BC83353614F
:103500007047137C03F003030029CBD043F004037E
:10351000C8E700BFC8D50120254BD3F8AC20D2E9BD
:103520000010D3680968006810B41842946801EA72
:10353000040134D0137C03F0030309BB43F00803F8
:103540009908013B11740D2B0ED8DFE803F010072A
:1035500022070D1C10101C0D072207105169137E45
:1035600001390133516113765DF8044B7047137EC6
:1035700051690133013113765DF8044B5161704795
:1035800043F00403DAE753695DF8044BC83B536129
:10359000704753695DF8044BC83353617047137C1F
:1035A00003F003030029CBD043F00403C8E700BFB6
:1035B000C8D50120254BD3F8D820D2E90010D36814
:1035C0000968006810B41842946801EA040134D014
:1035D000137C03F0030309BB43F008039908013B84
:1035E00011740D2B0ED8DFE803F0100722070D1C15
:1035F00010101C0D072207105169137E0139013389
:10360000516113765DF8044B7047137E51690133A5
:10361000013113765DF8044B5161704743F00403A8
:10362000DAE753695DF8044BC83B5361704753694F
:103630005DF8044BC83353617047137C03F00303F8
:103640000029CBD043F00403C8E700BFC8D5012050
:10365000254BD3F88420D2E90010D36809680068AC
:1036600010B41842946801EA040134D0137C03F0CA
:10367000030309BB43F008039908013B11740D2BA8
:103680000ED8DFE803F0100722070D1C10101C0DE8
:10369000072207105169137E0139013351611376F6
:1036A0005DF8044B7047137E516901330131137685
:1036B0005DF8044B5161704743F00403DAE7536946
:1036C0005DF8044BC83B5361704753695DF8044B88
:1036D000C83353617047137C03F003030029CBD038
:1036E00043F00403C8E700BFC8D50120254BD3F839
:1036F0008820D2E90010D3680968006810B4184225
:10370000946801EA040134D0137C03F0030309BB7D
:1037100043F008039908013B11740D2B0ED8DFE824
:1037200003F0100722070D1C10101C0D07220710B4
:103730005169137E01390133516113765DF8044BF1
:103740007047137E51690133013113765DF8044BE4
:103750005161704743F00403DAE753695DF8044BA5
:10376000C83B5361704753695DF8044BC8335361DC
:103770007047137C03F003030029CBD043F004030C
:10378000C8E700BFC8D50120254BD3F88C20D2E96B
:103790000010D3680968006810B41842946801EA00
:1037A000040134D0137C03F0030309BB43F0080386
:1037B0009908013B11740D2B0ED8DFE803F01007B8
:1037C00022070D1C10101C0D072207105169137ED3
:1037D00001390133516113765DF8044B7047137E54
:1037E00051690133013113765DF8044B5161704723
:1037F00043F00403DAE753695DF8044BC83B5361B7
:10380000704753695DF8044BC83353617047137CAC
:1038100003F003030029CBD043F00403C8E700BF43
:10382000C8D50120254BD3F89020D2E90010D368E9
:103830000968006810B41842946801EA040134D0A1
:10384000137C03F0030309BB43F008039908013B11
:1038500011740D2B0ED8DFE803F0100722070D1CA2
:1038600010101C0D072207105169137E0139013316
:10387000516113765DF8044B7047137E5169013333
:10388000013113765DF8044B5161704743F0040336
:10389000DAE753695DF8044BC83B536170475369DD
:1038A0005DF8044BC83353617047137C03F0030386
:1038B0000029CBD043F00403C8E700BFC8D50120DE
:1038C000254BD3F89420D2E90010D368096800682A
:1038D00010B41842946801EA040134D0137C03F058
:1038E000030309BB43F008039908013B11740D2B36
:1038F0000ED8DFE803F0100722070D1C10101C0D76
:10390000072207105169137E013901335161137683
:103910005DF8044B7047137E516901330131137612
:103920005DF8044B5161704743F00403DAE75369D3
:103930005DF8044BC83B5361704753695DF8044B15
:10394000C83353617047137C03F003030029CBD0C5
:1039500043F00403C8E700BFC8D50120254BD3F8C6
:103960009820D2E90010D3680968006810B41842A2
:10397000946801EA040134D0137C03F0030309BB0B
:1039800043F008039908013B11740D2B0ED8DFE8B2
:1039900003F0100722070D1C10101C0D0722071042
:1039A0005169137E01390133516113765DF8044B7F
:1039B0007047137E51690133013113765DF8044B72
:1039C0005161704743F00403DAE753695DF8044B33
:1039D000C83B5361704753695DF8044BC83353616A
:1039E0007047137C03F003030029CBD043F004039A
:1039F000C8E700BFC8D50120254BD3F89C20D2E9E9
:103A00000010D3680968006810B41842946801EA8D
:103A1000040134D0137C03F0030309BB43F0080313
:103A20009908013B11740D2B0ED8DFE803F0100745
:103A300022070D1C10101C0D072207105169137E60
:103A400001390133516113765DF8044B7047137EE1
:103A500051690133013113765DF8044B51617047B0
:103A600043F00403DAE753695DF8044BC83B536144
:103A7000704753695DF8044BC83353617047137C3A
:103A800003F003030029CBD043F00403C8E700BFD1
:103A9000C8D50120254BD3F8BC20D2E90010D3684B
:103AA0000968006810B41842946801EA040134D02F
:103AB000137C03F0030309BB43F008039908013B9F
:103AC00011740D2B0ED8DFE803F0100722070D1C30
:103AD00010101C0D072207105169137E01390133A4
:103AE000516113765DF8044B7047137E51690133C1
:103AF000013113765DF8044B5161704743F00403C4
:103B0000DAE753695DF8044BC83B5361704753696A
:103B10005DF8044BC83353617047137C03F0030313
:103B20000029CBD043F00403C8E700BFC8D501206B
:103B3000244B9A6FD2E90010D3680968006810B46A
:103B40001842946801EA040134D0137C03F00303A3
:103B500009BB43F008039908013B11740D2B0ED8E3
:103B6000DFE803F0100722070D1C10101C0D0722C0
:103B700007105169137E01390133516113765DF8E5
:103B8000044B7047137E51690133013113765DF8A0
:103B9000044B5161704743F00403DAE753695DF861
:103BA000044BC83B5361704753695DF8044BC833FD
:103BB00053617047137C03F003030029CBD043F01B
:103BC0000403C8E7C8D50120244B1A6FD2E90010BE
:103BD000D3680968006810B41842946801EA0401C7
:103BE00034D0137C03F0030309BB43F008039908A6
:103BF000013B11740D2B0ED8DFE803F010072207EC
:103C00000D1C10101C0D072207105169137E01397D
:103C10000133516113765DF8044B7047137E51698F
:103C20000133013113765DF8044B5161704743F065
:103C30000403DAE753695DF8044BC83B53617047EE
:103C400053695DF8044BC83353617047137C03F02C
:103C500003030029CBD043F00403C8E7C8D50120F3
:103C6000244B5A6FD2E90010D3680968006810B479
:103C70001842946801EA040134D0137C03F0030372
:103C800009BB43F008039908013B11740D2B0ED8B2
:103C9000DFE803F0100722070D1C10101C0D07228F
:103CA00007105169137E01390133516113765DF8B4
:103CB000044B7047137E51690133013113765DF86F
:103CC000044B5161704743F00403DAE753695DF830
:103CD000044BC83B5361704753695DF8044BC833CC
:103CE00053617047137C03F003030029CBD043F0EA
:103CF0000403C8E7C8D50120244B1A6ED2E900108E
:103D0000D3680968006810B41842946801EA040195
:103D100034D0137C03F0030309BB43F00803990874
:103D2000013B11740D2B0ED8DFE803F010072207BA
:103D30000D1C10101C0D072207105169137E01394C
:103D40000133516113765DF8044B7047137E51695E
:103D50000133013113765DF8044B5161704743F034
:103D60000403DAE753695DF8044BC83B53617047BD
:103D700053695DF8044BC83353617047137C03F0FB
:103D800003030029CBD043F00403C8E7C8D50120C2
:103D9000244B5A6ED2E90010D3680968006810B449
:103DA0001842946801EA040134D0137C03F0030341
:103DB00009BB43F008039908013B11740D2B0ED881
:103DC000DFE803F0100722070D1C10101C0D07225E
:103DD00007105169137E01390133516113765DF883
:103DE000044B7047137E51690133013113765DF83E
:103DF000044B5161704743F00403DAE753695DF8FF
:103E0000044BC83B5361704753695DF8044BC8339A
:103E100053617047137C03F003030029CBD043F0B8
:103E20000403C8E7C8D50120244B9A6ED2E90010DC
:103E3000D3680968006810B41842946801EA040164
:103E400034D0137C03F0030309BB43F00803990843
:103E5000013B11740D2B0ED8DFE803F01007220789
:103E60000D1C10101C0D072207105169137E01391B
:103E70000133516113765DF8044B7047137E51692D
:103E80000133013113765DF8044B5161704743F003
:103E90000403DAE753695DF8044BC83B536170478C
:103EA00053695DF8044BC83353617047137C03F0CA
:103EB00003030029CBD043F00403C8E7C8D5012091
:103EC000244BDA6ED2E90010D3680968006810B498
:103ED0001842946801EA040134D0137C03F0030310
:103EE00009BB43F008039908013B11740D2B0ED850
:103EF000DFE803F0100722070D1C10101C0D07222D
:103F000007105169137E01390133516113765DF851
:103F1000044B7047137E51690133013113765DF80C
:103F2000044B5161704743F00403DAE753695DF8CD
:103F3000044BC83B5361704753695DF8044BC83369
:103F400053617047137C03F003030029CBD043F087
:103F50000403C8E7C8D50120244B1A6CD2E900102D
:103F6000D3680968006810B41842946801EA040133
:103F700034D0137C03F0030309BB43F00803990812
:103F8000013B11740D2B0ED8DFE803F01007220758
:103F90000D1C10101C0D072207105169137E0139EA
:103FA0000133516113765DF8044B7047137E5169FC
:103FB0000133013113765DF8044B5161704743F0D2
:103FC0000403DAE753695DF8044BC83B536170475B
:103FD00053695DF8044BC83353617047137C03F099
:103FE00003030029CBD043F00403C8E7C8D5012060
:103FF000244B5A6CD2E90010D3680968006810B4E9
:104000001842946801EA040134D0137C03F00303DE
:1040100009BB43F008039908013B11740D2B0ED81E
:10402000DFE803F0100722070D1C10101C0D0722FB
:1040300007105169137E01390133516113765DF820
:10404000044B7047137E51690133013113765DF8DB
:10405000044B5161704743F00403DAE753695DF89C
:10406000044BC83B5361704753695DF8044BC83338
:1040700053617047137C03F003030029CBD043F056
:104080000403C8E7C8D50120244B9A6CD2E900107C
:10409000D3680968006810B41842946801EA040102
:1040A00034D0137C03F0030309BB43F008039908E1
:1040B000013B11740D2B0ED8DFE803F01007220727
:1040C0000D1C10101C0D072207105169137E0139B9
:1040D0000133516113765DF8044B7047137E5169CB
:1040E0000133013113765DF8044B5161704743F0A1
:1040F0000403DAE753695DF8044BC83B536170472A
:1041000053695DF8044BC83353617047137C03F067
:1041100003030029CBD043F00403C8E7C8D501202E
:10412000244BDA6CD2E90010D3680968006810B437
:104130001842946801EA040134D0137C03F00303AD
:1041400009BB43F008039908013B11740D2B0ED8ED
:10415000DFE803F0100722070D1C10101C0D0722CA
:1041600007105169137E01390133516113765DF8EF
:10417000044B7047137E51690133013113765DF8AA
:10418000044B5161704743F00403DAE753695DF86B
:10419000044BC83B5361704753695DF8044BC83307
:1041A00053617047137C03F003030029CBD043F025
:1041B0000403C8E7C8D50120244B1A6DD2E90010CA
:1041C000D3680968006810B41842946801EA0401D1
:1041D00034D0137C03F0030309BB43F008039908B0
:1041E000013B11740D2B0ED8DFE803F010072207F6
:1041F0000D1C10101C0D072207105169137E013988
:104200000133516113765DF8044B7047137E516999
:104210000133013113765DF8044B5161704743F06F
:104220000403DAE753695DF8044BC83B53617047F8
:1042300053695DF8044BC83353617047137C03F036
:1042400003030029CBD043F00403C8E7C8D50120FD
:10425000244B5A6DD2E90010D3680968006810B485
:104260001842946801EA040134D0137C03F003037C
:1042700009BB43F008039908013B11740D2B0ED8BC
:10428000DFE803F0100722070D1C10101C0D072299
:1042900007105169137E01390133516113765DF8BE
:1042A000044B7047137E51690133013113765DF879
:1042B000044B5161704743F00403DAE753695DF83A
:1042C000044BC83B5361704753695DF8044BC833D6
:1042D00053617047137C03F003030029CBD043F0F4
:1042E0000403C8E7C8D50120244B9A6DD2E9001019
:1042F000D3680968006810B41842946801EA0401A0
:1043000034D0137C03F0030309BB43F0080399087E
:10431000013B11740D2B0ED8DFE803F010072207C4
:104320000D1C10101C0D072207105169137E013956
:104330000133516113765DF8044B7047137E516968
:104340000133013113765DF8044B5161704743F03E
:104350000403DAE753695DF8044BC83B53617047C7
:1043600053695DF8044BC83353617047137C03F005
:1043700003030029CBD043F00403C8E7C8D50120CC
:10438000244BDA6DD2E90010D3680968006810B4D4
:104390001842946801EA040134D0137C03F003034B
:1043A00009BB43F008039908013B11740D2B0ED88B
:1043B000DFE803F0100722070D1C10101C0D072268
:1043C00007105169137E01390133516113765DF88D
:1043D000044B7047137E51690133013113765DF848
:1043E000044B5161704743F00403DAE753695DF809
:1043F000044BC83B5361704753695DF8044BC833A5
:1044000053617047137C03F003030029CBD043F0C2
:104410000403C8E7C8D50120244B1A68D2E900106C
:10442000D3680968006810B41842946801EA04016E
:1044300034D0137C03F0030309BB43F0080399084D
:10444000013B11740D2B0ED8DFE803F01007220793
:104450000D1C10101C0D072207105169137E013925
:104460000133516113765DF8044B7047137E516937
:104470000133013113765DF8044B5161704743F00D
:104480000403DAE753695DF8044BC83B5361704796
:1044900053695DF8044BC83353617047137C03F0D4
:1044A00003030029CBD043F00403C8E7C8D501209B
:1044B000244B5A68D2E90010D3680968006810B428
:1044C0001842946801EA040134D0137C03F003031A
:1044D00009BB43F008039908013B11740D2B0ED85A
:1044E000DFE803F0100722070D1C10101C0D072237
:1044F00007105169137E01390133516113765DF85C
:10450000044B7047137E51690133013113765DF816
:10451000044B5161704743F00403DAE753695DF8D7
:10452000044BC83B5361704753695DF8044BC83373
:1045300053617047137C03F003030029CBD043F091
:104540000403C8E7C8D50120244B9A68D2E90010BB
:10455000D3680968006810B41842946801EA04013D
:1045600034D0137C03F0030309BB43F0080399081C
:10457000013B11740D2B0ED8DFE803F01007220762
:104580000D1C10101C0D072207105169137E0139F4
:104590000133516113765DF8044B7047137E516906
:1045A0000133013113765DF8044B5161704743F0DC
:1045B0000403DAE753695DF8044BC83B5361704765
:1045C00053695DF8044BC83353617047137C03F0A3
:1045D00003030029CBD043F00403C8E7C8D501206A
:1045E000244BDA68D2E90010D3680968006810B477
:1045F0001842946801EA040134D0137C03F00303E9
:1046000009BB43F008039908013B11740D2B0ED828
:10461000DFE803F0100722070D1C10101C0D072205
:1046200007105169137E01390133516113765DF82A
:10463000044B7047137E51690133013113765DF8E5
:10464000044B5161704743F00403DAE753695DF8A6
:10465000044BC83B5361704753695DF8044BC83342
:1046600053617047137C03F003030029CBD043F060
:104670000403C8E7C8D50120244B1A69D2E9001009
:10468000D3680968006810B41842946801EA04010C
:1046900034D0137C03F0030309BB43F008039908EB
:1046A000013B11740D2B0ED8DFE803F01007220731
:1046B0000D1C10101C0D072207105169137E0139C3
:1046C0000133516113765DF8044B7047137E5169D5
:1046D0000133013113765DF8044B5161704743F0AB
:1046E0000403DAE753695DF8044BC83B5361704734
:1046F00053695DF8044BC83353617047137C03F072
:1047000003030029CBD043F00403C8E7C8D5012038
:10471000244B5A69D2E90010D3680968006810B4C4
:104720001842946801EA040134D0137C03F00303B7
:1047300009BB43F008039908013B11740D2B0ED8F7
:10474000DFE803F0100722070D1C10101C0D0722D4
:1047500007105169137E01390133516113765DF8F9
:10476000044B7047137E51690133013113765DF8B4
:10477000044B5161704743F00403DAE753695DF875
:10478000044BC83B5361704753695DF8044BC83311
:1047900053617047137C03F003030029CBD043F02F
:1047A0000403C8E7C8D50120244B9A69D2E9001058
:1047B000D3680968006810B41842946801EA0401DB
:1047C00034D0137C03F0030309BB43F008039908BA
:1047D000013B11740D2B0ED8DFE803F01007220700
:1047E0000D1C10101C0D072207105169137E013992
:1047F0000133516113765DF8044B7047137E5169A4
:104800000133013113765DF8044B5161704743F079
:104810000403DAE753695DF8044BC83B5361704702
:1048200053695DF8044BC83353617047137C03F040
:1048300003030029CBD043F00403C8E7C8D5012007
:10484000244BDA69D2E90010D3680968006810B413
:104850001842946801EA040134D0137C03F0030386
:1048600009BB43F008039908013B11740D2B0ED8C6
:10487000DFE803F0100722070D1C10101C0D0722A3
:1048800007105169137E01390133516113765DF8C8
:10489000044B7047137E51690133013113765DF883
:1048A000044B5161704743F00403DAE753695DF844
:1048B000044BC83B5361704753695DF8044BC833E0
:1048C00053617047137C03F003030029CBD043F0FE
:1048D0000403C8E7C8D50120244B1A6AD2E90010A6
:1048E000D3680968006810B41842946801EA0401AA
:1048F00034D0137C03F0030309BB43F00803990889
:10490000013B11740D2B0ED8DFE803F010072207CE
:104910000D1C10101C0D072207105169137E013960
:104920000133516113765DF8044B7047137E516972
:104930000133013113765DF8044B5161704743F048
:104940000403DAE753695DF8044BC83B53617047D1
:1049500053695DF8044BC83353617047137C03F00F
:1049600003030029CBD043F00403C8E7C8D50120D6
:10497000244B5A6AD2E90010D3680968006810B461
:104980001842946801EA040134D0137C03F0030355
:1049900009BB43F008039908013B11740D2B0ED895
:1049A000DFE803F0100722070D1C10101C0D072272
:1049B00007105169137E01390133516113765DF897
:1049C000044B7047137E51690133013113765DF852
:1049D000044B5161704743F00403DAE753695DF813
:1049E000044BC83B5361704753695DF8044BC833AF
:1049F00053617047137C03F003030029CBD043F0CD
:104A00000403C8E7C8D50120244B9A6AD2E90010F4
:104A1000D3680968006810B41842946801EA040178
:104A200034D0137C03F0030309BB43F00803990857
:104A3000013B11740D2B0ED8DFE803F0100722079D
:104A40000D1C10101C0D072207105169137E01392F
:104A50000133516113765DF8044B7047137E516941
:104A60000133013113765DF8044B5161704743F017
:104A70000403DAE753695DF8044BC83B53617047A0
:104A800053695DF8044BC83353617047137C03F0DE
:104A900003030029CBD043F00403C8E7C8D50120A5
:104AA000244BDA6AD2E90010D3680968006810B4B0
:104AB0001842946801EA040134D0137C03F0030324
:104AC00009BB43F008039908013B11740D2B0ED864
:104AD000DFE803F0100722070D1C10101C0D072241
:104AE00007105169137E01390133516113765DF866
:104AF000044B7047137E51690133013113765DF821
:104B0000044B5161704743F00403DAE753695DF8E1
:104B1000044BC83B5361704753695DF8044BC8337D
:104B200053617047137C03F003030029CBD043F09B
:104B30000403C8E7C8D50120244B1A6BD2E9001042
:104B4000D3680968006810B41842946801EA040147
:104B500034D0137C03F0030309BB43F00803990826
:104B6000013B11740D2B0ED8DFE803F0100722076C
:104B70000D1C10101C0D072207105169137E0139FE
:104B80000133516113765DF8044B7047137E516910
:104B90000133013113765DF8044B5161704743F0E6
:104BA0000403DAE753695DF8044BC83B536170476F
:104BB00053695DF8044BC83353617047137C03F0AD
:104BC00003030029CBD043F00403C8E7C8D5012074
:104BD000244B5A6BD2E90010D3680968006810B4FE
:104BE0001842946801EA040134D0137C03F00303F3
:104BF00009BB43F008039908013B11740D2B0ED833
:104C0000DFE803F0100722070D1C10101C0D07220F
:104C100007105169137E01390133516113765DF834
:104C2000044B7047137E51690133013113765DF8EF
:104C3000044B5161704743F00403DAE753695DF8B0
:104C4000044BC83B5361704753695DF8044BC8334C
:104C500053617047137C03F003030029CBD043F06A
:104C60000403C8E7C8D50120244B9A6BD2E9001091
:104C7000D3680968006810B41842946801EA040116
:104C800034D0137C03F0030309BB43F008039908F5
:104C9000013B11740D2B0ED8DFE803F0100722073B
:104CA0000D1C10101C0D072207105169137E0139CD
:104CB0000133516113765DF8044B7047137E5169DF
:104CC0000133013113765DF8044B5161704743F0B5
:104CD0000403DAE753695DF8044BC83B536170473E
:104CE00053695DF8044BC83353617047137C03F07C
:104CF00003030029CBD043F00403C8E7C8D5012043
:104D0000244BDA6BD2E90010D3680968006810B44C
:104D10001842946801EA040134D0137C03F00303C1
:104D200009BB43F008039908013B11740D2B0ED801
:104D3000DFE803F0100722070D1C10101C0D0722DE
:104D400007105169137E01390133516113765DF803
:104D5000044B7047137E51690133013113765DF8BE
:104D6000044B5161704743F00403DAE753695DF87F
:104D7000044BC83B5361704753695DF8044BC8331B
:104D800053617047137C03F003030029CBD043F039
:104D90000403C8E7C8D50120244BDA6FD2E900101C
:104DA000D3680968006810B41842946801EA0401E5
:104DB00034D0137C03F0030309BB43F008039908C4
:104DC000013B11740D2B0ED8DFE803F0100722070A
:104DD0000D1C10101C0D072207105169137E01399C
:104DE0000133516113765DF8044B7047137E5169AE
:104DF0000133013113765DF8044B5161704743F084
:104E00000403DAE753695DF8044BC83B536170470C
:104E100053695DF8044BC83353617047137C03F04A
:104E200003030029CBD043F00403C8E7C8D5012011
:104E300043782DE9F04104462DED028B82B0002B22
:104E400000F0A1800378002B00F0848003690F46F6
:104E500082690221DFF8D48193424269D8F8005078
:104E6000C8BF8361C368D8F800609342B8BF43618C
:104E7000D0E9012313448360C369ED1A036A6048D3
:104E8000F61A1FF0D1F837B1384622F099FC0146E6
:104E900038461FF0C9F8A36922695A495A481CF0DC
:104EA000D7FA6369E268594957481CF0D1FA07EE0E
:104EB000905A5749B8EE675AD4ED027A5248B8EE84
:104EC000E76AD4ED017AB7EEC55A524FB8EEE77AE9
:104ED00007EE906AB7EEC66AB8EE678AB7EEC77A91
:104EE0009FED414BB7EEC88A85EE043B88EE042B5C
:104EF00087EE037B86EE025B53EC172B8DED005B98
:104F00001CF0A6FA032144481FF08EF8A7FB0531D8
:104F10000A22002389093C481CF0A8FA03213F48D3
:104F20001FF082F83E4B9E424FD84EF660239E42C1
:104F30003ED8A7FB067100230A22334889091CF0DA
:104F400095FA012137481FF06FF8012136481FF00C
:104F50006BF809E0DFF8D48042F20F72836183605E
:104F6000D8F80030426103620023D8F8002042F2F2
:104F70000F7163602370E261C4E9031302B0BDECFA
:104F8000028BBDE8F081294942F20F728361836090
:104F90000D68086801212562E26063602370E061AA
:104FA0006170C4E9043202B0BDEC028BBDE8F0814F
:104FB0009FED0F0B0121144888EE000B1CF06CFADA
:104FC00001211B481FF030F8BFE79FED0B0B0121BB
:104FD0000D4888EE000B1CF05FFA012115481FF008
:104FE00023F8B2E7AFF300800000000000408F40DC
:104FF00000000000004CED400000000040774B41F5
:10500000B03F00201425002030330120202500204F
:105010002C250020D34D621040250020442500207F
:1050200080EE360050430020A44C002038DF0120E1
:10503000901700207022002038B5037B04460D46EF
:1050400093B900680F4AA36812680F49D31AA26087
:10505000A1FB03139B09B0FBF3F00023A8422360DC
:105060002CBF401B002038BD1CF0BAFE237B1BB9AF
:10507000206800232373E5E7D4E900329B1A184423
:10508000F7E700BF38DF0120D34D621000000000B9
:105090005B4B1B6830B5044683B08362092938D85E
:1050A000DFE801F04716163705272737055790F830
:1050B0005130042B0AD00020A17C84F8520084F8DF
:1050C0005310002A78D1042384F8513003B030BD46
:1050D00090F85130022BF9D0407C002184F8520026
:1050E00084F85310002A5FD1022384F8513003B0B2
:1050F00030BD90F85130032BE8D00020A17C84F81B
:10510000520084F85310002A5ED1032384F85130F2
:10511000DCE790F85130002BD8D00025026C3949DB
:10512000A0F85250384800951CF092F984F851507C
:10513000CCE790F85130012BC8D0407C002184F896
:10514000520084F85310002A4ED1012384F85130C4
:10515000BCE790F85130052B21D0417CB6EE084BCE
:1051600006EE101A817C07EE101AB8EEC66BB8EE88
:10517000C77B26EE046B9FED205BFCEEC66B27EE33
:10518000057B16EE900A84F85200FCEEC77B17EE02
:10519000901A84F85310FAB9052384F8513000238B
:1051A00084F8303003B030BD0220226C15490090E5
:1051B00015481CF04DF997E70420226C1149009026
:1051C00011481CF045F97EE70320226C0D49009040
:1051D0000D481CF03DF998E70520226C0949009024
:1051E00009481CF035F9D7E70120226C05490090E9
:1051F00005481CF02DF9A8E79A9999999999E93FE2
:1052000038DF01204825002030330120F0B587B079
:105210001EF0E4FEC4B2632C00F0A580612C00F007
:10522000CD80672C00F0CE806C2C00F0AC806D2C13
:1052300073D06E2C00F0D680A4F10A03692B00F223
:10524000A780DFE813F08E00A500A5008E00A50062
:10525000A500A500A500A500A500A500A500A50026
:10526000A500A500A500A500A500A500A500A50016
:10527000A500A500A500A500A500A500A500A50006
:10528000A500A500A500A500A500A500A500A500F6
:10529000A5008E00EE001001230151012C014201F6
:1052A000560165019601A500A500A500A500A50071
:1052B000A500A500A500A500A500A500A500A500C6
:1052C000A500A500A500A500A500A500A500A500B6
:1052D000A500A500A500C301A500A500A500A50087
:1052E000A500A500A500A500A500A500A500A50096
:1052F000A500A500A500A500A500A500A500A50086
:10530000A500A500A500A500A500A500A500A50075
:10531000A500C901A5000D0252021EF01BFE0028C7
:1053200036DD1EF05BFE3038AD4CC3B2AD49684689
:10533000052B9CBF226813701CF0D2F9694603A8A4
:105340001CF0ECF9236803A819781CF059FA0146FF
:10535000A5481CF02FF803A81CF0FCF968461CF0C7
:10536000F9F907B0F0BDA14C1B21A148237883F0C7
:10537000010323701EF058FE21789B4807B0BDE85A
:10538000F0401CF03DB81EF0E5FD002800F3B081B0
:1053900098499548FDF700FB214600230A229248D0
:1053A0001CF064F894499048FDF7F6FA01E01EF00D
:1053B00015FE1EF0CFFD0028F9D1D2E78F4C1F213A
:1053C0008F48D3E71EF0C6FD00287FF735AF1EF0EB
:1053D00005FE3038C1B20529C3D801228948FFF73C
:1053E00057FEBEE71EF0B6FD80B11EF091FDC0B2C3
:1053F00032280BD11EF0F2FD834C844923787A4881
:1054000083F001032370FDF7C7FAB5E7804C16213E
:10541000804A2378804883F00103237082F8833424
:10542000A8E77E4E1CF0DCFC04463578002D00F029
:105430008081012D00F09781022D00F0AE811CF0DB
:10544000CFFC774905466848FDF7A6FA291B0023DB
:105450000A2265481CF00AF87249634807B0BDE8A3
:10546000F040FDF799BA704E1CF0BAFC044635784E
:10547000002D00F06B81012D00F08281022D00F0E3
:1054800099811CF0ADFC69490546DCE70023012148
:1054900067481A4607B0BDE8F04009F041B9654CCD
:1054A0000023634E0F21251D1A46304609F038F9B6
:1054B000A5423FF456AF002314F8011F30461A46A8
:1054C00009F02EF9A542F6D14BE75A4C0F21584E60
:1054D000251D01230022304609F022F9AC423FF499
:1054E00040AF14F8011FF4E7012300225048194689
:1054F000D0E7504C0F214E4E251D0123BB223046D4
:1055000009F00EF9AC423FF42CAF14F8011FF4E798
:10551000484D0023464F0F212E1D2C4638461A4673
:1055200009F0FEF8A64208D0002314F8011F3846FF
:105530001A4609F0F5F8A642F6D13F493F4A404BDA
:1055400048681268A3FB02329623920C03FB02F216
:105550004B681B1A9A42FBD80F21354E0123BB2200
:10556000304609F0DDF8AC423FF4FBAE15F8011F00
:10557000F4E7344C8823012533491B4884F8A530CF
:1055800084F8305184F82F51FDF706FA2946204659
:1055900008F08EFD002840F0C7802C491248FDF726
:1055A000FBF9E02301251048294984F8A53084F847
:1055B000305184F82F51FDF7EFF92946214808F0C2
:1055C00077FD002840F0AE80204946E74FF0E02309
:1055D000204AC3F80C2DC4E61F4C20490EE700BF3B
:1055E000ACDB0120CC1A002030330120ABDF0120DE
:1055F000741A0020101D0020381D002095DF0120A6
:10560000901A002074CF0120A7DF0120E41A0020A7
:10561000A6DF0120F8810120FC1A00208EDF012086
:10562000181C0020201C00208FDF0120C41C00203B
:10563000B4DD0120C4230020001000E02C33012041
:1056400083DE1B4384350120CC1C0020E41C002099
:10565000FC1C00200400FA05ADDF0120141B002013
:105660005B495C48FDF798F95B495C4800230C688E
:1056700042F20F724360C4610C680370836004627D
:105680000C68C0E90323C0E905235548C4610C68D0
:1056900043600370836004620C68C0E90323C0E9BF
:1056A00005235048C4610C68436003708360C0E9FF
:1056B0000323C0E9052304624B480C684360C461BE
:1056C0000C680370046283600C680968C0E90523F4
:1056D000C0E903234548C0E90323436003704261E6
:1056E00083600162C0E906343BE6414C414985E6EE
:1056F0001EF074FCC0B2A0F13004E3B2052B3FF6FB
:1057000030AE00EB80033C4A3C4903EB8303314855
:105710005B00603B1374FDF73FF932212D4804FB19
:1057200001F12BE6364998E635492A48FDF734F968
:1057300037E734492748FDF72FF901232A460F217F
:10574000314808F0EDFF0123337078E62F492148F6
:10575000FDF722F901232A460E212B4808F0E0FF2D
:10576000012333708DE62A491A48FDF715F92B46B7
:10577000ED220F21244808F0D3FF022333705EE6A8
:1057800024491448FDF708F92B46ED220E211E4846
:1057900008F0C6FF0223337073E61F490D48FDF77A
:1057A000FBF800230F2118481A4608F0B9FF002320
:1057B000337044E619490748FDF7EEF800230E213F
:1057C00011481A4608F0ACFF0023337059E600BFB9
:1057D0003C1B00203033012038DF012044DB012056
:1057E00068DB0120C8DD0120ECDD012084DA012026
:1057F000ACDF01205C1B002074CF0120B01A002018
:10580000EC1C0020741B0020B4DD0120241C0020AF
:10581000A41B0020501C0020E81B0020941C00202A
:105820001A4A30B592F8983083B0C3F19603092B29
:105830001BDC01AB18461FF081F9C1B2022912D05E
:10584000032908BF042101221148FFF721FC0D2084
:105850001CF01AFB01460D20B1FA81F149091CF038
:10586000E9FA03B030BD0521EDE792F88C4001ABB9
:1058700092F88D1000201444013165781144607055
:10588000184621F0DBFE65700346D3E7B4DC012047
:1058900074CF01202DE9F047DFF8A89241F2883259
:1058A000416A82B0D9F8003004465B1A934200F294
:1058B000AC80D9F8003040F6B832A16A5B1A934246
:1058C00000F28F80D9F80030216AA28D5B1A9A42CB
:1058D00075D2D9F80030274604F1130604F11F0AE7
:1058E000DFF86482236297F84C30023B012B03D827
:1058F00094F82E30002B69D197F84D302046217C4A
:10590000C3EB033297F84E50A8FB02320123D209B1
:1059100001FB02F2A8FB02127178C2F3CF1208F069
:10592000FFFE217CC5EB053235460123A8FB0202B0
:105930002046D20901FB02F2A8FB0212B178C2F3A1
:10594000CF1208F0EDFE0123002215F8031F2046B8
:1059500008F0E6FE554507F105072E46C3D194F839
:105960002E3083F0010384F82E3043BBD9F8002099
:105970000121A08D84F82F3002EB5003628E84F851
:105980003010A3EB52036363D9F800209A421AD96E
:105990000123274604F10C082646DFF8ACA184F861
:1059A0002F3097F850300537002B40F09C8003369D
:1059B000B045F6D194F82F302BB1636B3FE094F8EB
:1059C0003030002B36D102B0BDE8F087F51C16F858
:1059D000011F01230022204608F0A2FEAE42F6D1AC
:1059E000B8E7D9F8002094F85130A262002B3FF4B8
:1059F00069AF0025226C5149A4F8525050480095D7
:105A00001BF026FD84F851505CE790F84C30032BD6
:105A10003FF44FAF817C0325002280F84E1080F8C0
:105A20004D2046490095C26B45481BF011FD84F896
:105A30004C503EE794F82F20636B002AA4D0628E6E
:105A4000D9F8001013448B42BDD24FF0000A26460D
:105A500004F1130504F11F0984F830A096F85030C2
:105A6000DFF8E4804BB9EF1C4F453D4606F10506D3
:105A7000A9D096F85030002BF5D096F84C30023B68
:105A8000012B4FD996F84D30204696F84E70C3EB57
:105A900003326978A8FB0232237CD20903FB02F2AD
:105AA000A8FB02320123C2F3CF1208F039FEA97815
:105AB000C7EB07322F462046A8FB0232237CD209CF
:105AC00003FB02F2A8FB02320123C2F3CF1208F05B
:105AD00027FE0123002217F8031F204608F020FEAE
:105AE00086F850A0C0E7E57C2046317D01230022E6
:105AF00008F016FE717D01232046002208F010FEFA
:105B0000B17DC5EB05322046AAFB0232237CD209C7
:105B100003FB02F2AAFB02320123C2F3CF1208F008
:105B2000FFFD44E7EF1C15F8011F0123002220466A
:105B300008F0F6FDBD42F6D1D2E700BF48250020AF
:105B40003033012038DF0120818080800000000098
:105B500006EE902A00F588622DE9F043B8EEE61BC8
:105B600006EE903A044600F58467B8EEE64B00F581
:105B7000826004F586662DED028B83B0C4F848146C
:105B8000DDED0C6ADDED0F5AB8EEE62BDDED0D6AAA
:105B9000B8EEE55B119BB8EEE63BDDED0E6A9FEDDE
:105BA000AA8BB8EEE66B9FEDAA7B9FEDAB0BA6EE42
:105BB000087BDDED106AB8EEE66B25EE005B26EEA5
:105BC000006B21EE001B24EE004B32EE052B33EE72
:105BD000063B9FEDA30B80ED001B07ED024BB4EEDF
:105BE000C07B02ED025BF1EE10FA87ED002BA8BF3F
:105BF00037EE407B82ED006BB5EEC07B06ED023BDD
:105C0000F1EE10FA03D59FED966B37EE067B94F814
:105C100083249FED956B27EE067B86ED007BC4F811
:105C20006834002A40F08480954D2A68D4F8001426
:105C3000521AC4F888242A68C4F800242A68C4F8D0
:105C4000902494F8812412B9012284F8842401223A
:105C500013F0010503F0020803F0040984F882241C
:105C600084F88124C3F3C102C4F8782431D0B8F198
:105C7000000F3DD0B9F1000F49D02DB3D4F87834DE
:105C8000012B40F39A8016ED027BB5EE407BF1EEDE
:105C900010FA00F08B8004F58E6597ED000B80EE16
:105CA000070B1EF01DFC9FED727B20EE070B012100
:105CB00094F8833485ED000B84F88014002B40F0B9
:105CC0009280704C84ED000B03B0BDEC028BBDE8FC
:105CD000F08311216C481EF0A7F929466B481BF090
:105CE0008FFB04216A481EF09FF9B8F1000FC1D163
:105CF000102168481EF098F9414664481BF080FB6B
:105D0000042163481EF090F9B9F1000FDCD1132192
:105D100061481EF089F900215C481BF071FB0421E9
:105D20005B4803B0BDEC028BBDE8F0431EF07CB9CC
:105D3000534D022159481EF077F9002329680A22A1
:105D400052481BF093FBB4F8982455494F481BF078
:105D50007FFBD4F8003429680A224C48C91A002372
:105D60001BF084FB01214F481EF05EF9D4F8481463
:105D70004D4B4648A3FB01234FF47A729B0902FB6B
:105D800013114A4B0A22A3FB01310023C9081BF05F
:105D90006DFB012143481EF047F902213B4896ED77
:105DA000000B1BF079FBD4F868343EE79FED2A6BBB
:105DB00037EE067B06ED027B6DE794F88334002B0B
:105DC0003BD00E213A4804F58E651EF02DF9D4F82B
:105DD00078142E481BF014FB95ED000B9FED267BED
:105DE00020EE070B63E72F48264C1EF01DF9022119
:105DF000264895ED000B1BF04FFBB6EE007B94EDB3
:105E0000006B95ED000B36EE475BB4EEC50BF1EE83
:105E100010FA07D936EE077BB4EEC70BF1EE10FA95
:105E2000FFF650AF234919488DED000B53EC162BAC
:105E30001BF00EFB95ED000B44E7022117481EF006
:105E4000F3F8BEE7AFF300802D431CEBE2361A3FB8
:105E50000000000000208C407B14AE47E17A843FB4
:105E6000000000000020AC409A9999999999B93F97
:105E7000F8C1631ADCA54CC0CDCCCCCCCCCCEC3F6B
:105E800038DF0120E08001202C2400203033012065
:105E9000C42500204024002054240020B03F0020CE
:105EA0001824002008500020D34D6210CDCCCCCC5B
:105EB000682400207824002070B5044686B01BF0CA
:105EC0008FFFD4F80834A568C01A072DC4F88C04D5
:105ED0006FD03C2D40F0D180E07FA27F617F42EA0D
:105EE000002294F8235094F8330094F8223041EAC9
:105EF000022194F8322043EA052394F8315042EA13
:105F0000002294F8570094F855E045EA022594F8E9
:105F1000562094F82AC042EA002294F82F004EEA54
:105F2000022E94F82B204CEA022C94F82E2042EA00
:105F3000002294F8540040EA0E20059094F83000B6
:105F400040EA0520029094F8270094F8265045EA8C
:105F5000002594F8290040EA0C2094F82DC04CEA62
:105F6000022C94F83B20049294F83A20039294F87F
:105F7000212042EA032294F8253043EA052394F8CD
:105F8000245045EA032394F8205045EA0222257F55
:105F900045EA012194F82C5045EA0C25019594F826
:105FA000285045EA002520460095FFF7D1FD06B0B0
:105FB00070BD94F8333094F8320094F8312040EA00
:105FC000032094F8303094F8375042EA002294F8D5
:105FD000361094F8830443EA022394F83B2041EA04
:105FE0000521E57E06EE103A94F83A3043EA0223A2
:105FF00094F83520B8EEC66B42EA012294F83910C5
:1060000041EA032194F8343043EA022304F58C6218
:1060100005EE103A94F838309FED377BB8EEC55B4B
:1060200043EA0123A17E26EE076B41EA0521384DA4
:1060300025EE075B07EE103A637EB8EEC77B43EAB6
:106040000123217E9FED2E4B41EA032694F82F3049
:1060500027EE047B84F84C3404F58A6383ED005BFF
:1060600002ED026B82ED007BF0B92A682B68C4F860
:106070000424C4F8943406B070BD112125481DF0E5
:10608000D3FF00231022E9B223481BF0EFF90521CA
:1060900022481DF0C9FF0023102221791E4806B0B6
:1060A000BDE870401BF0E2B902211D481DF0BCFFA5
:1060B000296800230A2218481BF0D8F90C21194836
:1060C0001DF0B2FFD4F8043429680A221248C91A14
:1060D00000231BF0CBF9012113481DF0A5FF07EEAB
:1060E000906A02210C48B8EE677B9FED070B87EEA4
:1060F000000B1BF0D1F9B8E748AFBC9AF2D77A3E53
:10610000FCA9F1D24D62503F0000000000408F40DA
:1061100038DF0120FC230020303301201024002030
:10612000B03F0020EC23002008500020B52970B5B6
:106130000D4604462BD0622918D02378022B07D0B5
:10614000033B052B11D8DFE803F04B5E728BA3B342
:10615000237C0321627C2B4465602170DBB21A44EE
:10616000237494F8833462747BBB70BD0378012B75
:10617000E4D10221002290F8833401700282002BC6
:10618000F3D005216F48BDE870401DF04DBF436955
:10619000002BD2DA012303701BF022FE94F8833423
:1061A000C4F80804002BE0D0022167481DF03CFF32
:1061B000664900230A22096865481BF057F909213E
:1061C0006448BDE870401DF02FBF63481DF02CFFF0
:1061D0002946002310225E48BDE870401BF046B9F6
:1061E000237C0421627C2B44A5602170DBB21A441D
:1061F000237494F883346274002BB6D05649544803
:10620000FCF7CAFBE4E7237C0520627C2B4494F86E
:106210008314E560DBB220701A4423746274002991
:10622000A3D04E494A48BDE87040FCF7B5BB237C7B
:106230000620E1682B44627C01EB05212070DBB273
:106240000020E1601A4494F883146061237462743E
:1062500000298AD042493E48BDE87040FCF79CBB0B
:10626000237CEAB2617C1344DBB219442374636972
:106270006174E11801330A7694F883246361002A7B
:1062800050D1E2689A427FF470AF0723237070BD4B
:10629000237CAB421AD1082294F883342270002B5D
:1062A0003FF463AF2F492A48BDE87040FCF774BB48
:1062B000637CAB4220D194F88334002B3CD1204640
:1062C000FFF7FAFD4FF0FF33636170BD00254FF01B
:1062D000FF3302211C48636125701DF0A5FE1B4998
:1062E0002B460A2209681A481BF0C0F810211E48E4
:1062F000BDE870401DF098BE00254FF0FF3302212D
:106300001148636125701DF08FFE10492B460A224B
:1063100009680F481BF0AAF810211448BDE8704026
:106320001DF082BE012112481DF07EFE294608485C
:106330001BF066F86369A4E70E490548FCF72CFBDF
:10634000BDE700BFD0240020B03F002038DF01208F
:1063500030330120C4240020D8240020DC24002075
:10636000E0240020E4240020E82400200025002070
:1063700008500020FC2400209FED9D7B90ED042B15
:106380009FED9D3B9FED9E1B22EE072B90ED164B44
:1063900090ED0E5B22EE032B24EE014B25EE075B06
:1063A00090ED086B10B532EE067B044680ED0A4B8B
:1063B00037EE447B80ED0E5BB5EEC07B80ED042BA9
:1063C000F1EE10FA03D59FED904B37EE047B9FED75
:1063D000904BB4EEC47BF1EE10FAC0F2F7809FED63
:1063E0008E4BB4EEC47BF1EE10FA00F2EF80B1EE0A
:1063F000477B9FED854BB4EEC47BF1EE10FAC8BF2E
:1064000037EE447B9FED864B84ED067BB4EEC47B78
:10641000F1EE10FA05D59FED7C4B37EE047B84ED51
:10642000067BB0EEC74B9FED803BB4EEC34BF1EE65
:1064300010FA40F1D7809FED6E3BA7EE036B9FED06
:10644000724B9FED777BB4EEC46BF1EE10FAC8BFD0
:1064500036EE446BB4EEC76B84ED086BF1EE10FAC8
:1064600005D59FED697B36EE076B84ED086BB7EEC3
:10647000C55B32EE067B94ED124BB7EEC55A9FED2D
:106480006C1B34EE454B9FED602B24EE016BB4EE9C
:10649000C27B94ED023B9FED680BF1EE10FAA3EE88
:1064A000006BC8BF37EE427B84ED004BB5EEC07B7E
:1064B000F1EE10FA84ED026B03D59FED536B37EECE
:1064C000067B0C2162489FED5E6B27EE067B84ED18
:1064D0000C7B1DF0A9FD5F481AF09EFF09215E4864
:1064E0001DF0A2FD02215B4894ED160B1AF0D4FFBB
:1064F00058481AF091FF0A2158481DF095FD0221D5
:10650000544894ED120B1AF0C7FF52481AF084FF5A
:106510000C2153481DF088FD4E481AF07DFF1321D1
:1065200050481DF081FD02214A4894ED040B1AF0F9
:10653000B3FF48481AF070FF06214B481DF074FD68
:106540000221444894ED0E0B1AF0A6FF41481AF0C0
:1065500063FF0F2145481DF067FD3E481AF05CFFC0
:106560000F2143481DF060FD02213A4894ED080BCD
:106570001AF092FF37481AF04FFF0B213D481DF0EB
:1065800053FD0221334894ED000B1AF085FF31488A
:106590001AF042FF112138481DF046FD02212D4816
:1065A00094ED020B1AF078FF2A481AF035FF0E21FD
:1065B00032481DF039FD0221264894ED0C0B1AF0EB
:1065C0006BFF2448BDE810401AF026BF9FED124B28
:1065D000B4EEC47B9FED0C4BF1EE10FA05DD34EE0A
:1065E000477B06E79FED183B27E737EE047BFEE687
:1065F0009A9999999999B93F399D52A246DF91BFCD
:10660000399D52A246DF913F182D4454FB21194079
:10661000182D4454FB21F9BF182D4454FB21F93F98
:10662000182D4454FB2119C00AD7A3703D0AC73F57
:10663000333333333333D33F666666666666E63F8D
:10664000F8C1631ADCA54C409A9999999999C93F68
:106650004C290020303301205C29002068290020CB
:10666000742900208429002098290020A0290020D6
:10667000B0290020C0290020CC290020E0290020DA
:106680002DE9F047844C84B01BF0AAFB012394F859
:106690009850824EC5F1960570609D42337300F3A9
:1066A000B180002D00F39F807D4B012293F881146F
:1066B00083F8802409B983F884240122794F7A4C25
:1066C00083F881243A68C3F8902494F86030002B52
:1066D00036D176481EF02EFA754D94F8603085ED6F
:1066E000000B002B68D1734B93F83030042B00F073
:1066F000C680714A403595ED000B9FED637B1378A2
:1067000020EE070B85ED000B002B5ED00A22002344
:1067100039686A481AF0AAFE694968481AF098FE72
:1067200001A821F04DF801AB023818441EF006FA1A
:10673000014662481AF064FE60481AF06DFE44E0BB
:1067400060481EF0FBF907EE900A5F4BB8EEE77B5E
:106750005E4D5F4829469FED4E6B27EE067BBDEEF2
:10676000C77B17EE102A9A5CFCF7FEF859481EF01A
:10677000E1F94E4884ED120B1EF0DCF9B5F900305A
:10678000204606EE103AB5F9023007EE103AB8EEA0
:10679000C66BB8EEC77B84ED160B84ED046B84EDFD
:1067A0000E7BFFF7E9FD94F86030002B91D0404B51
:1067B000D4E90C01C3E9000194ED020B464D3E4AB9
:1067C000137885ED000B002BA0D11BF009FB337B68
:1067D00023B1D6E900329B1A03443360002333739C
:1067E00004B0BDE8F08794F89550002394F8961013
:1067F00001A82544013121446C786B7020F01EFF04
:106800006C7051E794F894704FF0000994F895106B
:106810002744DFF89880194497F801A040462144A6
:1068200087F8019020F00AFF022D87F801A0DAD046
:1068300094F8937008F1080094F8941027440131FB
:1068400097F801A0214487F8019020F0F7FE042D6D
:1068500087F801A0C7DD94F8915094F89200254480
:1068600001306F78204485F801901EF067F96F7051
:1068700094F89850C8F81000C5F1960511E715482E
:1068800040351EF057F99AE7CDCCCCCCCCCCEC3FC0
:106890009A9999999999B93FB4DC01203CD101208A
:1068A000F881012038DF0120F0800120A08C012038
:1068B0002886012008890120A6DF0120303301202D
:1068C000741700208CDB0120E023002078DA0120FF
:1068D00008DA0120A88C0120688601200B484FF0BF
:1068E000FF0C01210F22037880F80DC0437190F84E
:1068F00001C08372837801724FF4967180F806C0EC
:1069000080F80BC0C37103731BF004BD7C460120EB
:1069100070B501201BF054FB04460220E4B21BF0CA
:106920004FFB40F6641360F30F24A4B29C421C4C4E
:1069300025D0022201211B4804F10F05C4F59676EB
:106940001BF0E8FC0F224FF4967117481BF0E2FC95
:10695000A0191BF035FB04F8010BAC42F8D12A2139
:1069600012481DF061FB4FF4C87111480D221BF055
:10697000D1FC23210F48BDE870401DF055BB04F148
:106980000F05C4F59676A0191BF01AFB04F8010B4D
:10699000AC42F8D122210848BDE870401DF044BB4C
:1069A0007C460120FC310120B423002084210020FA
:1069B00024410120B0210020D4210020D0E9002171
:1069C000C3681268096810B41942846802EA0402B4
:1069D00034D0037C03F003030ABB43F008039A0896
:1069E000013B02740D2B0ED8DFE803F010072207DD
:1069F0000D1C10101C0D072207104269037E013A7E
:106A00000133426103765DF8044B70474269037EAF
:106A100001325DF8044B013342610376704743F065
:106A20000403DAE743695DF8044BC83B43617047F0
:106A300043695DF8044BC83343617047037C03F03E
:106A40000303002ACBD043F00403C8E70B4610B57C
:106A5000362800F29782DFE810F08C028202790279
:106A6000700267025E0255024C0243023A02310292
:106A700028021F02BF01B601AD01A4019B019201D2
:106A80008901800177016E0165015C0153014A01B2
:106A9000410138012F0126011D0113010901FF00E9
:106AA000F500EB00E100D700CD00C300B900AF0056
:106AB000A5009B00910087007D00730069005F00C6
:106AC00055004B0041003700C84C0422C84936200D
:106AD000C4F8D8301BF030FC012010BDC34C042298
:106AE000C4493520C4F8D4301BF026FC012010BD69
:106AF000BE4C0422C0493420C4F8D0301BF01CFC2A
:106B0000012010BDB94C0422BC493320C4F8CC305C
:106B10001BF012FC012010BDB44C0422B8493220F5
:106B2000C4F8C8301BF008FC012010BDAF4C042293
:106B3000B4493120C4F8C4301BF0FEFB012010BD65
:106B4000AA4C0422B0493020C4F8C0301BF0F4FB3A
:106B5000012010BDA54C0422AC492F20C4F8BC3044
:106B60001BF0EAFB012010BDA04C0422A8492E20F6
:106B7000C4F8B8301BF0E0FB012010BD9B4C042290
:106B8000A4492D20C4F8B4301BF0D6FB012010BD61
:106B9000964C0422A0492C20C4F8B0301BF0CCFB4A
:106BA000012010BD914C04229C492B20C4F8AC302C
:106BB0001BF0C2FB012010BD8C4C042298492A20F6
:106BC000C4F8A8301BF0B8FB012010BD874C04228C
:106BD00094492920C4F8A4301BF0AEFB012010BD5D
:106BE000824C042290492820C4F8A0301BF0A4FB5A
:106BF000012010BD7D4C04228C492720C4F89C3014
:106C00001BF09AFB012010BD784C042288492620F5
:106C1000C4F898301BF090FB012010BD734C042287
:106C200084492520C4F894301BF086FB012010BD58
:106C30006E4C042280492420C4F890301BF07CFB69
