:0200000460009A
:100000004643464200000156000000000103030081
:1000100000000000000000000000000000000000E0
:1000200000000000000000000000000000000000D0
:1000300000000000000000000000000000000000C0
:1000400000000000010408000000000000000000A3
:100050000000800000000000000000000000000020
:100060000000000000000000000000000000000090
:100070000000000000000000000000000000000080
:10008000EB04180A063204260000000000000000FD
:10009000050404240000000000000000000000002F
:1000A0000000000000000000000000000000000050
:1000B0000604000000000000000000000000000036
:1000C0000000000000000000000000000000000030
:1000D00020041808000000000000000000000000DC
:1000E0000000000000000000000000000000000010
:1000F0000000000000000000000000000000000000
:10010000D8041808000000000000000000000000F3
:100110000204180804200000000000000000000095
:1001200000000000000000000000000000000000CF
:10013000600400000000000000000000000000005B
:1001400000000000000000000000000000000000AF
:10015000000000000000000000000000000000009F
:10016000000000000000000000000000000000008F
:10017000000000000000000000000000000000007F
:10018000000000000000000000000000000000006F
:10019000000000000000000000000000000000005F
:1001A000000000000000000000000000000000004F
:1001B000000000000000000000000000000000003F
:1001C000000100000010000001000000000000001D
:1001D000000001000000000000000000000000001E
:1001E000000000000000000000000000000000000F
:1001F00000000000000000000000000000000000FF
:10020000FFFFFFFFFFFFFFFFFFFFFFFFFFFFFFFFFE
:10021000FFFFFFFFFFFFFFFFFFFFFFFFFFFFFFFFEE
:10100000D10020434D1600600000000000000000E9
:101010002010006000100060002804600000000044
:10102000000000600034040000000000FFFFFFFF2C
:10103000FFFFFFFFFFFFFFFFFFFFFFFFFFFFFFFFC0
:10104000FFFFFFFFFFFFFFFFFFFFFFFFFFFFFFFFB0
:10105000FFFFFFFFFFFFFFFFFFFFFFFFFFFFFFFFA0
:10106000FFFFFFFFFFFFFFFFFFFFFFFFFFFFFFFF90
:10140000814205D051F8043B40F8043B8242F9D8B0
:10141000704700BF044A05494FF0000342F8043BFF
:101420009142FBD8704700BFC04E0120A0DE0120D2
:101430002DE98848BFF34F8F00BF00BF00BF00BF3A
:1014400000F000FA684B0822C3F8542100BF00BF27
:1014500000BF00BF00BF00BF00BF00BF00BF00BF94
:1014600000BF00BF00BF00BF00BF00BF5F4A6049B0
:101470006048FFF7C5FF604A60496148FFF7C0FF59
:10148000604CFFF7C7FF4FF470004FF0E0210023DE
:101490005D4AC1F8880D44F823200133B02BFAD1FE
:1014A0005A4B80215A4A03F8011B9342FBD14FF05B
:1014B000E0254D4E4FF08039DFF884B1DFF884A18C
:1014C0004FF0FF31C5F8084D0027C6F80491C6F863
:1014D00000B1C6F8F490C6F8F0A0D5F8243DDFF8C6
:1014E000688143F4E0234B4AC5F8243DD8F81C300A
:1014F00023F07F0343F04003C8F81C30D8F82430B1
:1015000023F07F0343F04003C8F824309166D1668E
:101510001167516700F09EF93F4B4049A363404B70
:10152000E36363236B610323AF612B613D4BC5F81C
:10153000203DD5F8FC3D43F08073C5F8FC3D3A4BA7
:101540001A6842F001021A605B680B6000F0CCFB85
:10155000C6F804913548C6F800B1C6F8F490C6F84C
:10156000F0A000F049FDD8F86C10314B314A41F43D
:101570004051C8F86C101F60C3F80871C3F81871A7
:10158000C3F82871C3F83871936BDB0708D442F6AF
:101590001563294951651365936B43F00103936308
:1015A000244A264C936843F00113936000F0DAF963
:1015B00000F01EF900F01CFD00F0C4FB00F044F93F
:1015C0002368132BFCD900F055FC2368B3F5967FF4
:1015D000FBD300F03DF900F039F900F0F5FC00F024
:1015E000FBFC30BFFDE700BF00800D4058B3020098
:1015F0000022006000000000C04E01205CD50260A7
:1016000000000020004C0120B907020000E400E0C7
:10161000A0E400E000C00A40D91B0200F0DD012078
:10162000DD1B020000002020001000E00046C32364
:101630000040084000400D400000C056F4DD01208D
:101640001B1018200C0D111300C00F40054B4FF458
:101650002A01054A05485A641864054A9963954663
:10166000FFF7E6FE00C00A40FFAFAAAA070020006D
:101670000000052043690A4A03EB011010B4037A05
:10168000084C02EB0313D3E901321460C2681A60FC
:1016900003690BB142691A605DF8044B704700BFE3
:1016A0008033002061F801004369027E03EB0212DF
:1016B00092F808C08C451CD01A7AFF2A19D09142A2
:1016C00010B5044616D01A7EFF2A06D00121D3E9B0
:1016D000002312681A4201D1217610BD064B052263
:1016E000204603EB0C135B681A60FFF7C3FF2176FB
:1016F000F3E770470021EAE78033002043690A4A94
:1017000003EB011010B490F82830084C02EB0313DF
:10171000D3E901321460C26A1A60036B0BB1426BE9
:101720001A605DF8044B70478033002061F80100B7
:101730004369427E03EB021292F828C08C451ED00A
:1017400093F82820FF2A1AD0914210B5044617D0EA
:1017500093F83820FF2A06D00121D3E9002312682C
:101760001A4201D1617610BD064B0522204603EBDB
:101770000C135B681A60FFF7C1FF6176F3E77047EF
:101780000021EAE780330020164942698B6B23F47D
:101790007C0343F4802370B58B630446124DD2E979
:1017A00000130A681A4303690A60022200211A61C1
:1017B0000E4A19619A6401225A629D624FF43035D3
:1017C000DD624FF001159E6C1E6519629D651A6100
:1017D000017EFFF74FFF617E2046BDE87040FFF7B6
:1017E0008DBF00BF00C00F40B80B05053B3728195F
:1017F000104BA020104AD96E41F4403110B4D96684
:1018000040F23764D96E41F44071D96654649064F3
:10181000936C1B06FCD4094A40F23761A023516443
:101820009364936C13F08003FBD1054A13705DF849
:10183000044B704700C00F4000400C4000800C403B
:1018400054DE0120704700BF704700BF704700BFE3
:1018500000BF704710B44FF0E0230021102431483E
:10186000C3F8941DC3F89C4D1124C3F8A00D2E4855
:10187000C3F89C4D1224C3F8A00D2C48C3F89C4D0E
:101880002B4AC3F8A00D2B4C42F015022A48C3F88E
:101890009C4DC3F8A00D294C2948C3F89C4DC3F8B2
:1018A000A00D284CC3F89C2D2748284AC3F8A04D0A
:1018B000C3F89C0DC3F8A02D02F5A022244C0C32D5
:1018C0002448C3F89C4DC3F8A02D234AC3F89C0DAF
:1018D000224CC3F8A02D02F14062C3F89C4D204871
:1018E000C3F8A02D0C32C3F89C0DC3F8A02D00BF87
:1018F00000BF00BF00BF00BF0122C3F8942DBFF39B
:101900004F8FBFF36F8FC3F8501FBFF34F8FBFF3DD
:101910006F8FD3F8142D5DF8044B42F44032C3F8B6
:10192000142D70473F000010250008070900100023
:10193000A0DE012013002000210002071400002077
:1019400025000813090000101600202027000B13A3
:1019500017000040180000602F000B0719000070EE
:101960001A000080F0B5B84B1822B84E0120B84FCD
:1019700083B0C3F85C62B749C3F86072B64DC3F870
:101980006462A6F53046B54CC3F86862C3F86C5281
:10199000C3F87052C3F87452C3F8785248F20C7509
:1019A000DA661A675A679A67DA67C3F88020C3F85D
:1019B0008420C3F88820C1F82C03A94AC1F8300359
:1019C000C1F83403C1F83803C1F83C03C1F850032F
:1019D000A169A44B0A40A448A4491343A44AA361A3
:1019E000D4F8843043F00C03C4F884304FF0FF3453
:1019F000036843F00203036003682B404FF4005573
:101A00001A439C4B026044608A689B4C13409B4A7B
:101A100043F000538360C36823F07803C360036A14
:101A2000134023430362036A1340954A2343954CB2
:101A300043628262C2620022D1F8B83023F03F03D1
:101A400043F00103C0F8B830D1F8BC308E4923F020
:101A50003F0343F00103C0F8BC3040F2056302616C
:101A600005660467C0F88030456644670224C0F804
:101A70008430036823F0020303608161834B84494F
:101A8000C46143F8042B8B42FBD1774A136843F0BF
:101A900001031360136813F00103FBD17A4802219C
:101AA00040F2F564906140F29940D16140F26641A4
:101AB000C2F8004242F20144C2F810127549C2F85D
:101AC0002002C2F8301240F235417348C2F8344265
:101AD000C2F84012714CC2F8500242F20120704923
:101AE000C2F854120121C2F86042C2F864025E4892
:101AF000C2F8A030C2F8A430C2F8B0104369DA07C7
:101B0000FCD5012300244FF4803257494361C0F8CB
:101B1000A040C0F8A420C0F8B0304B69DB07FCD56A
:101B2000012300244FF400304F4A4B61C1F8A0401C
:101B3000C1F8A400C1F8B0305369DF07FCD5012318
:101B40000024584848495361C2F8A040C2F8A40094
:101B5000C2F8B0304B69DE07FCD5D1F8003145F64C
:101B60000D5221209BB24861934265D100244FF46D
:101B7000802201233C48C1F8A040C1F8A420C1F84C
:101B8000B0304369DD07FCD501234FF40004002188
:101B9000354A4361C0F8A040C0F8A410C0F8B03086
:101BA0005369DC07FCD501234FF400044FF4803067
:101BB0002D495361C2F8A040C2F8A400C2F8B03069
:101BC0004B69D807FCD501234FF400044FF40030D3
:101BD000254A4B61C1F8A040C1F8A400C1F8B0305B
:101BE0005369D907FCD501234FF400042D481E4941
:101BF0005361C2F8A040C2F8A400C2F8B0304B69EB
:101C0000DA07FCD5D1F8003145F60D5221209BB200
:101C10004861934250D008254FF400042249002027
:101C2000224B234A009015705A1A0123214822445E
:101C300000F0CEF903B0F0BD1E4B0022C3E9002234
:101C4000C3E9022203B0F0BD00801F40F9B00100DB
:101C5000F910010000841F40F970010000C00F401E
:101C6000FFFCFF1F000300A000402A4000802A4024
:101C70001200FFFFFF37F7004000008000FFF07CFC
:101C8000FF000F8363000200F05AF05A00422A401E
:101C900000432A409F041830EB06180A3806180A39
:101CA00006320126040003000000007000000070EE
:101CB00055DE0120A8D901204FF400044FF4802202
:101CC00001230848C1F8A040C1F8A420C1F8B030F1
:101CD0004369DB07FCD5012310254FF08074436175
:101CE0009CE700BF00402A40F0B4154A40274FF45B
:101CF00080314FF480564FF400554FF4404443F286
:101D00004200136913F0020F0ED113F4005F0FD0DD
:101D100013F4805F0ED0002BF3DA13F4803F0BD165
:101D20005B060BD5F0BC7047946151619061E8E7A8
:101D30005561E6E75661E4E79161E2E75761E0E764
:101D400000800D403F4A03203F49F3EE095AD2F884
:101D500080304FF0000C9FED3D6A23F001039FEDB2
:101D60003C5A30B4C2F88030C2F89000D1F8E0108C
:101D7000384DCBB2384C39482B6007EE903A0B0DFA
:101D8000C1F30B21F8EEE77A06EE903A07EE101A4F
:101D9000334BB8EEC77A2160F8EEE66A314937EE88
:101DA000C66A37EEC55A76EEC76A77EEE57A26EE52
:101DB000266AC3ED006A25EE265AD2F8803067EE17
:101DC000A64AC0ED007AC6EE275A274885EE276A54
:101DD000C4EEA76A75EE875AFCEEE55A36EE076A3E
:101DE00015EE904ABCEEC66A43EA045376EE877A53
:101DF000C2F8803016EE103AD2F89041FCEEE77A45
:101E000001EA0341214317EE903AC2F89011C3F35F
:101E10000B03D2F890110B431449C2F89031D2F859
:101E2000803043F00203C2F88030114B80F840C08C
:101E3000C1F840314FF0E023012230BCC3F8082143
:101E4000704700BF00810D4000441F400000AA42BF
:101E50000000B44214DD012010DD012018DD012056
:101E600024DD01200000FF0F00E400E0004C012011
:101E7000A1090200314B40F6617210B5C3F8202170
:101E800040F2044400F0ACF82D4A2E49D2F88030DC
:101E90002D4843F00303C2F880302C4BC1F8604159
:101EA00002681A4203D1D1F8A8319A071BD0254AFB
:101EB0004FF00041244B5963D2F8403143F0020304
:101EC000C2F84031D2F840319B07FBD44FF40030C8
:101ED0004FF0E0211C4B4FF00042C1F88C0219205A
:101EE0009A6300F081F8184A4FF08040154C0021A9
:101EF00090630A20164B11604FF42072C4F8A801B9
:101F0000184600F05DF84FF4800203464FF481005C
:101F100040F243111860C4F858311A640D4B0E4A50
:101F2000C4F84811C3F804224FF0E0224FF4003106
:101F30000123C2F80C11C4F8403110BD00800D40DF
:101F400000C00F4000002E4000900D40001C1E00FD
:101F500000000020004C0120890B020008B50E4B48
:101F60001B6E9B0700D4FBBE72B60C4B00200C4AC4
:101F7000C3F8400103F160430A49A3F55F231164EC
:101F80009D46BFF34F8F4FF400130748074ADB69A4
:101F900002609B68984700BF00441F4000002E402D
:101FA00000C00A400300200000802020000012EB47
:101FB000F8B500BFF8BC08BC9E46704700000000A2
:101FC0005FF800F0A54402005FF800F07D4C0200CD
:101FD0005FF800F06D1C02005FF800F0D5FD010015
:101FE0005FF800F0F91202005FF800F0D1F601008E
:101FF0005FF800F0C50602005FF800F0E1F30100B1
:0820000069040000F59F0000D7
:1020080080C00F400000000319000000100000000D
:10201800E8841F4001000000FF000000FF000000EE
:102028000000000000000000180000001000000080
:10203800E4841F4001000000FF000000FF000000D2
:1020480000000000000000001F000000C5C00000E4
:1020580070C00F40000C00001100000011000000CB
:10206800E0841F40020000002C0000001200000065
:10207800E0841F4001000000100000001100000073
:10208800DC841F40020000002D0000001200000048
:10209800DC841F40010000001E000000B9C00000E1
:1020A80070C00F40C00000001200000013000000C4
:1020B800D0841F4001000000FF000000FF00000066
:1020C80000000000000000001300000013000000E2
:1020D800CC841F4001000000FF000000FF0000004A
:1020E80000000000000000001C000000ADC000005F
:1020F800160355005300420020005300650072008B
:10210800690061006C000000180354006500650058
:102118006E00730079006400750069006E006F003E
:102128000403090409026200030100C032080B001D
:102138000202020100090400000102020100052454
:1021480000100105240101010424020605240600EB
:10215800010705820310001009040100020A0000AB
:10216800000705030240000007058402400000093B
:1021780004020002FF6AFF00070581024000010710
:10218800050102400001000009026200030100C0CD
:1021980032080B00020202010009040000010202D9
:1021A8000100052400100105240101010424020690
:1021B8000524060001070582031000050904010033
:1021C800020A000000070503020002000705840256
:1021D8000002000904020002FF6AC7000705810225
:1021E8000002010705010200020100000A060002C0
:0821F800EF02014001000000AC
:1022000000000000000000000000000000000000CE
:1022100000000000000000000000000000000000BE
:102220000A49D1E900231344824298BF984234BF3F
:102230000123002308D28B68801AB0FBF3F203FB62
:102240001200B0FA80F35B0918467047004701207E
:102250000346024A00201A60704700BF2441012053
:102260000120704770B5054608460E46FFF7D8FFB7
:1022700038B34FF400121C4B2946D0691A68006924
:102280009B68B21A04690020A047184BB0FA80F48A
:1022900005461B686409022B01DC204670BD41F233
:1022A0004E721349134B032007F00AF9124B134ADD
:1022B00031461348002D08BF1A4607F047F920465B
:1022C00070BD0A4B04461B68002BE6DD094B41F24A
:1022D00046720749012007F0F3F83146094807F034
:1022E00035F9204670BD00BF004701200C46012093
:1022F000B8630020782C0020DC5B0020E05B00202D
:10230000085C0020E85B002001231A46013B002AFC
:10231000FBD17047064908B5D1F8E0309A0705D4DB
:10232000FFF7F2FFD1F8E0309B07F9D508BD00BFF9
:1023300000802A402DE9F04F2DED028BADF5077D91
:10234000044600AF07F11803F9607A607B6172B64A
:1023500007F11400FFF77CFF002847D16F4E7A6821
:10236000F368B2FBF3F503FB1525002D4CD1336860
:10237000A34200F2A780FB687A689A189342BA6079
:1023800080F0BA801D461FE03368FA68A4EB0309A9
:1023900093424BD94FF4001341464A46D8692B4625
:1023A0000069D0F808800020C047F368B0FA80FACE
:1023B0001D444FEA5A1A1C44BB68AB4294BF002329
:1023C0000AF00103002B61D02046FFF729FFD7F860
:1023D00014800028D8D021464046FFF743FF8246AC
:1023E0000028D1D14E4B1B68022B7CDC4FF0000A39
:1023F0004C4B1B7803B962B6504607F50777BD46CC
:10240000BDEC028BBDE8F08F454B1B68002BEDDD6A
:10241000454B41F26B7245498246012007F050F866
:10242000F2687968424807F091F8E1E76B46F06896
:1024300008EE103A20F00303800803F1070323F0AD
:102440000703ADEB030D6B4607EE903A0ED005EB9C
:102450008000A5F1040BA3F1040A0438FFF75AFF2A
:102460005BF8043F58454AF8043FF7D14FF4001099
:1024700017EE903A41464A46C0690069D0F8088094
:102480000020C04718EE103A9D468EE7244B804648
:102490001B68022BACDD244B41F2957223490320CB
:1024A00007F00EF8B8F1000F224A234B12BF4FF08D
:1024B000000A4FF0010A1346224679681F4807F0C8
:1024C00045F895E7164B1B68002B8FDD164B41F244
:1024D0006F720120154906F0F3FF21461848AA46FD
:1024E00007F034F884E7104B41F295720F4903204E
:1024F00006F0E6FF104BDFE7094B1B68022B02DCFE
:102500004FF0010A74E7084B41F295720749032026
:1025100006F0D6FF4FF0010A064BCDE70047012039
:102520000C4601206CDE0120842C0020B8630020C2
:102530002C5C0020DC5B0020E05B0020685C00205D
:10254000485C0020B2B12DE9F041074688461D469F
:102550001646002408EB040138192C442A46FFF7DC
:10256000E9FEA642F6D84FF0E023054AC3F80C2D49
:10257000BDE8F0814FF0E023014AC3F80C2D70470D
:102580000400FA05F8B54FF084439D695A69154077
:102590000DD0254F01269D6195FAA5F4B4FA84F477
:1025A00057F8243006FA04F49847A543F4D11F4B9A
:1025B0009D695A6915400DD01D4F01269D6195FA00
:1025C000A5F4B4FA84F457F8243006FA04F49847D2
:1025D000A543F4D1174B9D695A6915400DD0164F8C
:1025E00001269D6195FAA5F4B4FA84F457F82430D5
:1025F00006FA04F49847A543F4D1104B9D695A6933
:1026000015400DD00E4F01269D6195FAA5F4B4FA40
:1026100084F457F8243006FA04F49847A543F4D11B
:10262000BFF34F8FF8BD00BF884301200040004238
:1026300008440120008000428844012000C000427C
:10264000084501200548064B1B1AD90F01EBA301D1
:10265000491002D0034B03B118477047C04E012008
:10266000C04E01200000000008B5054B1BB1054914
:102670000548AFF30080BDE80840FFF7E3BF00BFA7
:10268000000000005CDC012000340460704700BFE3
:10269000704700BF704700BF00207047034B1868A9
:1026A00010B103681B681847704700BF54D401205D
:1026B000704700BF4FF0E023014AC3F80C2D70476C
:1026C0000400FA05002070472DE9F04100F5804034
:1026D00090B0574C9646574B0094C0F860121B6A56
:1026E0005548C3F301230468403304F080746B44FD
:1026F00013F8406C514B03FB06F60368B6FBF1F28E
:10270000B6FBF2F543F0A0434D1B03600368DF0105
:10271000FCD5052A4FF0000C2AD96046831C0130F5
:10272000B2FBF3F7192F07FB03F3F7D84FF00108BB
:10273000B6FBF3F3CB1A002BB8BF5B42AB420BDB0B
:10274000A7F10C0318BF4FF00008062B0AD8B8F108
:10275000000F07D08446E1E71D46A7F10C0384462D
:10276000062BF4D9052FD9D80CF10103B2FBF3F2F3
:10277000B5F5967FA2F105024CDC142A4AD802EB8B
:1027800042022F4F6E46DFF8B08002F14003BEF1E7
:10279000020F0DEB03050FCF0FC60FCF0FC60FCFE4
:1027A0000FC697E80F0007C626F8023B4FEA13430F
:1027B000337015F83F3C15F83E2C4FEAC34315F82B
:1027C000401C4FEA024203F4601301F0070102F4D7
:1027D000E02243EA020343EA010343F4800343EAAD
:1027E0000C6343F48043C8F80430D8F8043014BFB5
:1027F00023F0080343F00803C8F804303CB90E4A3C
:10280000136823F0805313601368DB01FCD410B00D
:10281000BDE8F081002CFAD1074A136823F08053F9
:1028200013601368D901FCD410B0BDE8F08100BF7B
:102830003C18500000C00F4000801D4040420F0077
:10284000480600200020704700207047082070478D
:102850000346104A102110B590B0DC78029407A806
:102860009C7801945C78009405AC1B7813F096FC7E
:10287000002307A920460F93CDE90B33CDE90D3393
:1028800016F016FB0BAA94E8030017F04DFC0B980A
:1028900010B010BDB023002010B5002184B0064C4C
:1028A0004FF4FA72002300910448CDE9014113F07E
:1028B000C7F804B010BD00BFB5040000B8D90120AE
:1028C00010490B68486B0A68496B02F07F02C1F33C
:1028D000036101320431B2EB410F10D303F07F03E7
:1028E000C0F30360053B0130A3EB4003DBB2054AB4
:1028F000106800F07F000130C01AC0B2704700239A
:10290000F5E700BF00801D4030B585B086460DF16B
:10291000040C8CE80E0090F86E5090F86F402B1964
:102920000A2B01D90B3B9BB2DAB263460B2C02EBAC
:10293000820203CB0EEB420C1B884EF81200CCF83F
:102940000410ACF8083004D001348EF86F4005B0A4
:1029500030BD0135EDB20B2D03D08EF86E5005B0B1
:1029600030BD00238EF86E3005B030BD90F86F306A
:1029700093B1934210D390F86E301A440A2A88BF5C
:102980000B3A02EB820200EB420350F812005A6845
:1029900008604A601B890B81704700BF69B170B540
:1029A000054608460C4624F0CBFC2B68024621461F
:1029B00028465B68BDE8704018477047F8B5064682
:1029C00000F1160500F12207EC1E14F8011F012387
:1029D000002230460BF01CFEAC42F6D1E51CBD4295
:1029E000F2D13046F8BD00BF2DE9F84F182120483C
:1029F000DFF8888001244FF0000B1E4EDFF880A026
:102A00001D4FDFF8809021F0DBF801E018F801BFDE
:102A100033685A46514638461D1995F838502B44AC
:102A20005B7C1EF0E1FA31680C2238460B1993F8F2
:102A3000383002FB031154311EF088FA35685946CC
:102A4000002205EB040C95F83330013448469CF81D
:102A500038C065446D7CEB1A18BF01230BF0D8FD1C
:102A6000072CD3D10448BDE8F84F1EF0A1BA00BF2F
:102A7000CC2000206CDA012010330120A823002094
:102A8000E820002074DC01202DE9F041144C94F87A
:102A90009850C5F19605002D01DCBDE8F08194F851
:102AA0009560002794F8961026440E48013196F858
:102AB00001802144777024F081FB042D86F8018089
:102AC000EBDD94F8915094F89210254406480131BA
:102AD0006E7821446F7024F071FB6E70BDE8F08158
:102AE00074DB0120C8D10120D4D1012008B5074BE7
:102AF0001B7803B908BD5821054821F061F8054B42
:102B000005481978BDE808401EF046BA6EDE01207F
:102B10005019002074DB01201033012010B5114C36
:102B20000A460146206814F079FC98B91A210E482B
:102B300021F046F80D481EF03BFA1EF01DFF0C4B2D
:102B40001A7B22B1D3E90021521A02441A600022F2
:102B50001A7310BD20680021026D483012F000FA8F
:102B6000EBE700BFB8DD0120AC19002010330120D5
:102B7000B4D1012038B50D4604461EF0FDFE084ACA
:102B8000084B0121D26B586092F884201973042AF3
:102B900000D038BD29462046BDE83840FFF7BEBF0B
:102BA000B8D90120B4D1012038B5044649B108464E
:102BB0000D4624F0C5FB2368024629465B68204683
:102BC00098472046BDE838401EF0F2B92DE9F84399
:102BD00005460F4626480421144620F0F1FF002345
:102BE0001022E97823481EF00DFA0121224820F036
:102BF000E7FFE97800230A221E481EF003FA0221AB
:102C00001E4820F0DDFF34B1204624F099FB014638
:102C1000204620F0D5FF204624F092FBC4B2132CAE
:102C200008D8174E013401213046E4B220F0C8FF25
:102C3000142CF7D17E1E3A4612490E481EF0D4F9E4
:102C4000042E12DD0424DFF84090DFF828800C4FBA
:102C50002A5D013449464046E4B21EF0C5F901211F
:102C6000384620F0ADFFB442F2DBBDE8F88300BF88
:102C700034260020103301203C260020402600206E
:102C8000E84F00204426002050260020244B1A6FD5
:102C9000D2E90010D3680968006810B4184294683B
:102CA00001EA040134D0137C03F0030309BB43F0B1
:102CB00008039908013B11740D2B0ED8DFE803F0CF
:102CC000100722070D1C10101C0D07220710516958
:102CD000137E01390133516113765DF8044B70475F
:102CE000137E51690133013113765DF8044B516154
:102CF000704743F00403DAE753695DF8044BC83BBF
:102D00005361704753695DF8044BC8335361704792
:102D1000137C03F003030029CBD043F00403C8E77E
:102D200088D40120244BDA6FD2E90010D3680968F7
:102D3000006810B41842946801EA040134D0137C8E
:102D400003F0030309BB43F008039908013B117426
:102D50000D2B0ED8DFE803F0100722070D1C101012
:102D60001C0D072207105169137E0139013351618F
:102D700013765DF8044B7047137E516901330131BE
:102D800013765DF8044B5161704743F00403DAE7B2
:102D900053695DF8044BC83B5361704753695DF854
:102DA000044BC83353617047137C03F003030029BD
:102DB000CBD043F00403C8E788D40120244B1A6821
:102DC000D2E90010D3680968006810B4184294680A
:102DD00001EA040134D0137C03F0030309BB43F080
:102DE00008039908013B11740D2B0ED8DFE803F09E
:102DF000100722070D1C10101C0D07220710516927
:102E0000137E01390133516113765DF8044B70472D
:102E1000137E51690133013113765DF8044B516122
:102E2000704743F00403DAE753695DF8044BC83B8D
:102E30005361704753695DF8044BC8335361704761
:102E4000137C03F003030029CBD043F00403C8E74D
:102E500088D40120254BD3F8D820D2E90010D368BC
:102E60000968006810B41842946801EA040134D07B
:102E7000137C03F0030309BB43F008039908013BEB
:102E800011740D2B0ED8DFE803F0100722070D1C7C
:102E900010101C0D072207105169137E01390133F0
:102EA000516113765DF8044B7047137E516901330D
:102EB000013113765DF8044B5161704743F0040310
:102EC000DAE753695DF8044BC83B536170475369B7
:102ED0005DF8044BC83353617047137C03F0030360
:102EE0000029CBD043F00403C8E700BF88D40120F9
:102EF000254BD3F88420D2E90010D3680968006814
:102F000010B41842946801EA040134D0137C03F031
:102F1000030309BB43F008039908013B11740D2B0F
:102F20000ED8DFE803F0100722070D1C10101C0D4F
:102F3000072207105169137E01390133516113765D
:102F40005DF8044B7047137E5169013301311376EC
:102F50005DF8044B5161704743F00403DAE75369AD
:102F60005DF8044BC83B5361704753695DF8044BEF
:102F7000C83353617047137C03F003030029CBD09F
:102F800043F00403C8E700BF88D40120254BD3F8E1
:102F9000D020D2E90010D3680968006810B4184244
:102FA000946801EA040134D0137C03F0030309BBE5
:102FB00043F008039908013B11740D2B0ED8DFE88C
:102FC00003F0100722070D1C10101C0D072207101C
:102FD0005169137E01390133516113765DF8044B59
:102FE0007047137E51690133013113765DF8044B4C
:102FF0005161704743F00403DAE753695DF8044B0D
:10300000C83B5361704753695DF8044BC833536143
:103010007047137C03F003030029CBD043F0040373
:10302000C8E700BF88D40120254BD3F88C20D2E913
:103030000010D3680968006810B41842946801EA67
:10304000040134D0137C03F0030309BB43F00803ED
:103050009908013B11740D2B0ED8DFE803F010071F
:1030600022070D1C10101C0D072207105169137E3A
:1030700001390133516113765DF8044B7047137EBB
:1030800051690133013113765DF8044B516170478A
:1030900043F00403DAE753695DF8044BC83B53611E
:1030A000704753695DF8044BC83353617047137C14
:1030B00003F003030029CBD043F00403C8E700BFAB
:1030C00088D40120254BD3F8D420D2E90010D3684E
:1030D0000968006810B41842946801EA040134D009
:1030E000137C03F0030309BB43F008039908013B79
:1030F00011740D2B0ED8DFE803F0100722070D1C0A
:1031000010101C0D072207105169137E013901337D
:10311000516113765DF8044B7047137E516901339A
:10312000013113765DF8044B5161704743F004039D
:10313000DAE753695DF8044BC83B53617047536944
:103140005DF8044BC83353617047137C03F00303ED
:103150000029CBD043F00403C8E700BF88D4012086
:10316000244B5A6FD2E90010D3680968006810B484
:103170001842946801EA040134D0137C03F003037D
:1031800009BB43F008039908013B11740D2B0ED8BD
:10319000DFE803F0100722070D1C10101C0D07229A
:1031A00007105169137E01390133516113765DF8BF
:1031B000044B7047137E51690133013113765DF87A
:1031C000044B5161704743F00403DAE753695DF83B
:1031D000044BC83B5361704753695DF8044BC833D7
:1031E00053617047137C03F003030029CBD043F0F5
:1031F0000403C8E788D40120254BD3F8C020D2E9C6
:103200000010D3680968006810B41842946801EA95
:10321000040134D0137C03F0030309BB43F008031B
:103220009908013B11740D2B0ED8DFE803F010074D
:1032300022070D1C10101C0D072207105169137E68
:1032400001390133516113765DF8044B7047137EE9
:1032500051690133013113765DF8044B51617047B8
:1032600043F00403DAE753695DF8044BC83B53614C
:10327000704753695DF8044BC83353617047137C42
:1032800003F003030029CBD043F00403C8E700BFD9
:1032900088D40120254BD3F89420D2E90010D368BC
:1032A0000968006810B41842946801EA040134D037
:1032B000137C03F0030309BB43F008039908013BA7
:1032C00011740D2B0ED8DFE803F0100722070D1C38
:1032D00010101C0D072207105169137E01390133AC
:1032E000516113765DF8044B7047137E51690133C9
:1032F000013113765DF8044B5161704743F00403CC
:10330000DAE753695DF8044BC83B53617047536972
:103310005DF8044BC83353617047137C03F003031B
:103320000029CBD043F00403C8E700BF88D40120B4
:10333000254BD3F8C420D2E90010D368096800688F
:1033400010B41842946801EA040134D0137C03F0ED
:10335000030309BB43F008039908013B11740D2BCB
:103360000ED8DFE803F0100722070D1C10101C0D0B
:10337000072207105169137E013901335161137619
:103380005DF8044B7047137E5169013301311376A8
:103390005DF8044B5161704743F00403DAE7536969
:1033A0005DF8044BC83B5361704753695DF8044BAB
:1033B000C83353617047137C03F003030029CBD05B
:1033C00043F00403C8E700BF88D40120244BDA6C23
:1033D000D2E90010D3680968006810B418429468F4
:1033E00001EA040134D0137C03F0030309BB43F06A
:1033F00008039908013B11740D2B0ED8DFE803F088
:10340000100722070D1C10101C0D07220710516910
:10341000137E01390133516113765DF8044B704717
:10342000137E51690133013113765DF8044B51610C
:10343000704743F00403DAE753695DF8044BC83B77
:103440005361704753695DF8044BC833536170474B
:10345000137C03F003030029CBD043F00403C8E737
:1034600088D40120254BD3F8C820D2E90010D368B6
:103470000968006810B41842946801EA040134D065
:10348000137C03F0030309BB43F008039908013BD5
:1034900011740D2B0ED8DFE803F0100722070D1C66
:1034A00010101C0D072207105169137E01390133DA
:1034B000516113765DF8044B7047137E51690133F7
:1034C000013113765DF8044B5161704743F00403FA
:1034D000DAE753695DF8044BC83B536170475369A1
:1034E0005DF8044BC83353617047137C03F003034A
:1034F0000029CBD043F00403C8E700BF88D40120E3
:10350000254BD3F89C20D2E90010D36809680068E5
:1035100010B41842946801EA040134D0137C03F01B
:10352000030309BB43F008039908013B11740D2BF9
:103530000ED8DFE803F0100722070D1C10101C0D39
:10354000072207105169137E013901335161137647
:103550005DF8044B7047137E5169013301311376D6
:103560005DF8044B5161704743F00403DAE7536997
:103570005DF8044BC83B5361704753695DF8044BD9
:10358000C83353617047137C03F003030029CBD089
:1035900043F00403C8E700BF88D40120254BD3F8CB
:1035A000CC20D2E90010D3680968006810B4184232
:1035B000946801EA040134D0137C03F0030309BBCF
:1035C00043F008039908013B11740D2B0ED8DFE876
:1035D00003F0100722070D1C10101C0D0722071006
:1035E0005169137E01390133516113765DF8044B43
:1035F0007047137E51690133013113765DF8044B36
:103600005161704743F00403DAE753695DF8044BF6
:10361000C83B5361704753695DF8044BC83353612D
:103620007047137C03F003030029CBD043F004035D
:10363000C8E700BF88D40120244BDA6ED2E900101D
:10364000D3680968006810B41842946801EA04015C
:1036500034D0137C03F0030309BB43F0080399083B
:10366000013B11740D2B0ED8DFE803F01007220781
:103670000D1C10101C0D072207105169137E013913
:103680000133516113765DF8044B7047137E516925
:103690000133013113765DF8044B5161704743F0FB
:1036A0000403DAE753695DF8044BC83B5361704784
:1036B00053695DF8044BC83353617047137C03F0C2
:1036C00003030029CBD043F00403C8E788D40120CA
:1036D000254BD3F88020D2E90010D3680968006830
:1036E00010B41842946801EA040134D0137C03F04A
:1036F000030309BB43F008039908013B11740D2B28
:103700000ED8DFE803F0100722070D1C10101C0D67
:10371000072207105169137E013901335161137675
:103720005DF8044B7047137E516901330131137604
:103730005DF8044B5161704743F00403DAE75369C5
:103740005DF8044BC83B5361704753695DF8044B07
:10375000C83353617047137C03F003030029CBD0B7
:1037600043F00403C8E700BF88D40120254BD3F8F9
:10377000A420D2E90010D3680968006810B4184288
:10378000946801EA040134D0137C03F0030309BBFD
:1037900043F008039908013B11740D2B0ED8DFE8A4
:1037A00003F0100722070D1C10101C0D0722071034
:1037B0005169137E01390133516113765DF8044B71
:1037C0007047137E51690133013113765DF8044B64
:1037D0005161704743F00403DAE753695DF8044B25
:1037E000C83B5361704753695DF8044BC83353615C
:1037F0007047137C03F003030029CBD043F004038C
:10380000C8E700BF88D40120254BD3F88820D2E92F
:103810000010D3680968006810B41842946801EA7F
:10382000040134D0137C03F0030309BB43F0080305
:103830009908013B11740D2B0ED8DFE803F0100737
:1038400022070D1C10101C0D072207105169137E52
:1038500001390133516113765DF8044B7047137ED3
:1038600051690133013113765DF8044B51617047A2
:1038700043F00403DAE753695DF8044BC83B536136
:10388000704753695DF8044BC83353617047137C2C
:1038900003F003030029CBD043F00403C8E700BFC3
:1038A00088D40120244BDA69D2E90010D368096872
:1038B000006810B41842946801EA040134D0137C03
:1038C00003F0030309BB43F008039908013B11749B
:1038D0000D2B0ED8DFE803F0100722070D1C101087
:1038E0001C0D072207105169137E01390133516104
:1038F00013765DF8044B7047137E51690133013133
:1039000013765DF8044B5161704743F00403DAE726
:1039100053695DF8044BC83B5361704753695DF8C8
:10392000044BC83353617047137C03F00303002931
:10393000CBD043F00403C8E788D40120254BD3F84B
:103940009020D2E90010D3680968006810B41842CA
:10395000946801EA040134D0137C03F0030309BB2B
:1039600043F008039908013B11740D2B0ED8DFE8D2
:1039700003F0100722070D1C10101C0D0722071062
:103980005169137E01390133516113765DF8044B9F
:103990007047137E51690133013113765DF8044B92
:1039A0005161704743F00403DAE753695DF8044B53
:1039B000C83B5361704753695DF8044BC83353618A
:1039C0007047137C03F003030029CBD043F00403BA
:1039D000C8E700BF88D40120254BD3F8AC20D2E93A
:1039E0000010D3680968006810B41842946801EAAE
:1039F000040134D0137C03F0030309BB43F0080334
:103A00009908013B11740D2B0ED8DFE803F0100765
:103A100022070D1C10101C0D072207105169137E80
:103A200001390133516113765DF8044B7047137E01
:103A300051690133013113765DF8044B51617047D0
:103A400043F00403DAE753695DF8044BC83B536164
:103A5000704753695DF8044BC83353617047137C5A
:103A600003F003030029CBD043F00403C8E700BFF1
:103A700088D40120254BD3F89820D2E90010D368D0
:103A80000968006810B41842946801EA040134D04F
:103A9000137C03F0030309BB43F008039908013BBF
:103AA00011740D2B0ED8DFE803F0100722070D1C50
:103AB00010101C0D072207105169137E01390133C4
:103AC000516113765DF8044B7047137E51690133E1
:103AD000013113765DF8044B5161704743F00403E4
:103AE000DAE753695DF8044BC83B5361704753698B
:103AF0005DF8044BC83353617047137C03F0030334
:103B00000029CBD043F00403C8E700BF88D40120CC
:103B1000244BDA6BD2E90010D3680968006810B44E
:103B20001842946801EA040134D0137C03F00303C3
:103B300009BB43F008039908013B11740D2B0ED803
:103B4000DFE803F0100722070D1C10101C0D0722E0
:103B500007105169137E01390133516113765DF805
:103B6000044B7047137E51690133013113765DF8C0
:103B7000044B5161704743F00403DAE753695DF881
:103B8000044BC83B5361704753695DF8044BC8331D
:103B900053617047137C03F003030029CBD043F03B
:103BA0000403C8E788D40120254BD3F8A020D2E92C
:103BB0000010D3680968006810B41842946801EADC
:103BC000040134D0137C03F0030309BB43F0080362
:103BD0009908013B11740D2B0ED8DFE803F0100794
:103BE00022070D1C10101C0D072207105169137EAF
:103BF00001390133516113765DF8044B7047137E30
:103C000051690133013113765DF8044B51617047FE
:103C100043F00403DAE753695DF8044BC83B536192
:103C2000704753695DF8044BC83353617047137C88
:103C300003F003030029CBD043F00403C8E700BF1F
:103C400088D40120254BD3F8B420D2E90010D368E2
:103C50000968006810B41842946801EA040134D07D
:103C6000137C03F0030309BB43F008039908013BED
:103C700011740D2B0ED8DFE803F0100722070D1C7E
:103C800010101C0D072207105169137E01390133F2
:103C9000516113765DF8044B7047137E516901330F
:103CA000013113765DF8044B5161704743F0040312
:103CB000DAE753695DF8044BC83B536170475369B9
:103CC0005DF8044BC83353617047137C03F0030362
:103CD0000029CBD043F00403C8E700BF88D40120FB
:103CE000254BD3F8A820D2E90010D36809680068F2
:103CF00010B41842946801EA040134D0137C03F034
:103D0000030309BB43F008039908013B11740D2B11
:103D10000ED8DFE803F0100722070D1C10101C0D51
:103D2000072207105169137E01390133516113765F
:103D30005DF8044B7047137E5169013301311376EE
:103D40005DF8044B5161704743F00403DAE75369AF
:103D50005DF8044BC83B5361704753695DF8044BF1
:103D6000C83353617047137C03F003030029CBD0A1
:103D700043F00403C8E700BF88D40120244BDA6A6B
:103D8000D2E90010D3680968006810B4184294683A
:103D900001EA040134D0137C03F0030309BB43F0B0
:103DA00008039908013B11740D2B0ED8DFE803F0CE
:103DB000100722070D1C10101C0D07220710516957
:103DC000137E01390133516113765DF8044B70475E
:103DD000137E51690133013113765DF8044B516153
:103DE000704743F00403DAE753695DF8044BC83BBE
:103DF0005361704753695DF8044BC8335361704792
:103E0000137C03F003030029CBD043F00403C8E77D
:103E100088D40120254BD3F8B020D2E90010D36814
:103E20000968006810B41842946801EA040134D0AB
:103E3000137C03F0030309BB43F008039908013B1B
:103E400011740D2B0ED8DFE803F0100722070D1CAC
:103E500010101C0D072207105169137E0139013320
:103E6000516113765DF8044B7047137E516901333D
:103E7000013113765DF8044B5161704743F0040340
:103E8000DAE753695DF8044BC83B536170475369E7
:103E90005DF8044BC83353617047137C03F0030390
:103EA0000029CBD043F00403C8E700BF88D4012029
:103EB000254BD3F8BC20D2E90010D368096800680C
:103EC00010B41842946801EA040134D0137C03F062
:103ED000030309BB43F008039908013B11740D2B40
:103EE0000ED8DFE803F0100722070D1C10101C0D80
:103EF000072207105169137E01390133516113768E
:103F00005DF8044B7047137E51690133013113761C
:103F10005DF8044B5161704743F00403DAE75369DD
:103F20005DF8044BC83B5361704753695DF8044B1F
:103F3000C83353617047137C03F003030029CBD0CF
:103F400043F00403C8E700BF88D40120254BD3F811
:103F5000B820D2E90010D3680968006810B418428C
:103F6000946801EA040134D0137C03F0030309BB15
:103F700043F008039908013B11740D2B0ED8DFE8BC
:103F800003F0100722070D1C10101C0D072207104C
:103F90005169137E01390133516113765DF8044B89
:103FA0007047137E51690133013113765DF8044B7C
:103FB0005161704743F00403DAE753695DF8044B3D
:103FC000C83B5361704753695DF8044BC833536174
:103FD0007047137C03F003030029CBD043F00403A4
:103FE000C8E700BF88D40120244BDA6DD2E9001065
:103FF000D3680968006810B41842946801EA0401A3
:1040000034D0137C03F0030309BB43F00803990881
:10401000013B11740D2B0ED8DFE803F010072207C7
:104020000D1C10101C0D072207105169137E013959
:104030000133516113765DF8044B7047137E51696B
:104040000133013113765DF8044B5161704743F041
:104050000403DAE753695DF8044BC83B53617047CA
:1040600053695DF8044BC83353617047137C03F008
:1040700003030029CBD043F00403C8E788D4012010
:10408000244B5A68D2E90010D3680968006810B45C
:104090001842946801EA040134D0137C03F003034E
:1040A00009BB43F008039908013B11740D2B0ED88E
:1040B000DFE803F0100722070D1C10101C0D07226B
:1040C00007105169137E01390133516113765DF890
:1040D000044B7047137E51690133013113765DF84B
:1040E000044B5161704743F00403DAE753695DF80C
:1040F000044BC83B5361704753695DF8044BC833A8
:1041000053617047137C03F003030029CBD043F0C5
:104110000403C8E788D40120244B9A6FD2E9001029
:10412000D3680968006810B41842946801EA040171
:1041300034D0137C03F0030309BB43F00803990850
:10414000013B11740D2B0ED8DFE803F01007220796
:104150000D1C10101C0D072207105169137E013928
:104160000133516113765DF8044B7047137E51693A
:104170000133013113765DF8044B5161704743F010
:104180000403DAE753695DF8044BC83B5361704799
:1041900053695DF8044BC83353617047137C03F0D7
:1041A00003030029CBD043F00403C8E788D40120DF
:1041B000244B9A68D2E90010D3680968006810B4EB
:1041C0001842946801EA040134D0137C03F003031D
:1041D00009BB43F008039908013B11740D2B0ED85D
:1041E000DFE803F0100722070D1C10101C0D07223A
:1041F00007105169137E01390133516113765DF85F
:10420000044B7047137E51690133013113765DF819
:10421000044B5161704743F00403DAE753695DF8DA
:10422000044BC83B5361704753695DF8044BC83376
:1042300053617047137C03F003030029CBD043F094
:104240000403C8E788D40120244B5A6ED2E9001039
:10425000D3680968006810B41842946801EA040140
:1042600034D0137C03F0030309BB43F0080399081F
:10427000013B11740D2B0ED8DFE803F01007220765
:104280000D1C10101C0D072207105169137E0139F7
:104290000133516113765DF8044B7047137E516909
:1042A0000133013113765DF8044B5161704743F0DF
:1042B0000403DAE753695DF8044BC83B5361704768
:1042C00053695DF8044BC83353617047137C03F0A6
:1042D00003030029CBD043F00403C8E788D40120AE
:1042E000244B1A69D2E90010D3680968006810B439
:1042F0001842946801EA040134D0137C03F00303EC
:1043000009BB43F008039908013B11740D2B0ED82B
:10431000DFE803F0100722070D1C10101C0D072208
:1043200007105169137E01390133516113765DF82D
:10433000044B7047137E51690133013113765DF8E8
:10434000044B5161704743F00403DAE753695DF8A9
:10435000044BC83B5361704753695DF8044BC83345
:1043600053617047137C03F003030029CBD043F063
:104370000403C8E788D40120244B5A6CD2E900100A
:10438000D3680968006810B41842946801EA04010F
:1043900034D0137C03F0030309BB43F008039908EE
:1043A000013B11740D2B0ED8DFE803F01007220734
:1043B0000D1C10101C0D072207105169137E0139C6
:1043C0000133516113765DF8044B7047137E5169D8
:1043D0000133013113765DF8044B5161704743F0AE
:1043E0000403DAE753695DF8044BC83B5361704737
:1043F00053695DF8044BC83353617047137C03F075
:1044000003030029CBD043F00403C8E788D401207C
:10441000244B9A69D2E90010D3680968006810B487
:104420001842946801EA040134D0137C03F00303BA
:1044300009BB43F008039908013B11740D2B0ED8FA
:10444000DFE803F0100722070D1C10101C0D0722D7
:1044500007105169137E01390133516113765DF8FC
:10446000044B7047137E51690133013113765DF8B7
:10447000044B5161704743F00403DAE753695DF878
:10448000044BC83B5361704753695DF8044BC83314
:1044900053617047137C03F003030029CBD043F032
:1044A0000403C8E788D40120244B5A6DD2E90010D8
:1044B000D3680968006810B41842946801EA0401DE
:1044C00034D0137C03F0030309BB43F008039908BD
:1044D000013B11740D2B0ED8DFE803F01007220703
:1044E0000D1C10101C0D072207105169137E013995
:1044F0000133516113765DF8044B7047137E5169A7
:104500000133013113765DF8044B5161704743F07C
:104510000403DAE753695DF8044BC83B5361704705
:1045200053695DF8044BC83353617047137C03F043
:1045300003030029CBD043F00403C8E788D401204B
:10454000244B1A6AD2E90010D3680968006810B4D5
:104550001842946801EA040134D0137C03F0030389
:1045600009BB43F008039908013B11740D2B0ED8C9
:10457000DFE803F0100722070D1C10101C0D0722A6
:1045800007105169137E01390133516113765DF8CB
:10459000044B7047137E51690133013113765DF886
:1045A000044B5161704743F00403DAE753695DF847
:1045B000044BC83B5361704753695DF8044BC833E3
:1045C00053617047137C03F003030029CBD043F001
:1045D0000403C8E788D40120244BDA68D2E900102C
:1045E000D3680968006810B41842946801EA0401AD
:1045F00034D0137C03F0030309BB43F0080399088C
:10460000013B11740D2B0ED8DFE803F010072207D1
:104610000D1C10101C0D072207105169137E013963
:104620000133516113765DF8044B7047137E516975
:104630000133013113765DF8044B5161704743F04B
:104640000403DAE753695DF8044BC83B53617047D4
:1046500053695DF8044BC83353617047137C03F012
:1046600003030029CBD043F00403C8E788D401201A
:10467000244B9A6AD2E90010D3680968006810B424
:104680001842946801EA040134D0137C03F0030358
:1046900009BB43F008039908013B11740D2B0ED898
:1046A000DFE803F0100722070D1C10101C0D072275
:1046B00007105169137E01390133516113765DF89A
:1046C000044B7047137E51690133013113765DF855
:1046D000044B5161704743F00403DAE753695DF816
:1046E000044BC83B5361704753695DF8044BC833B2
:1046F00053617047137C03F003030029CBD043F0D0
:104700000403C8E788D40120244B5A69D2E9001079
:10471000D3680968006810B41842946801EA04017B
:1047200034D0137C03F0030309BB43F0080399085A
:10473000013B11740D2B0ED8DFE803F010072207A0
:104740000D1C10101C0D072207105169137E013932
:104750000133516113765DF8044B7047137E516944
:104760000133013113765DF8044B5161704743F01A
:104770000403DAE753695DF8044BC83B53617047A3
:1047800053695DF8044BC83353617047137C03F0E1
:1047900003030029CBD043F00403C8E788D40120E9
:1047A000244B1A6BD2E90010D3680968006810B472
:1047B0001842946801EA040134D0137C03F0030327
:1047C00009BB43F008039908013B11740D2B0ED867
:1047D000DFE803F0100722070D1C10101C0D072244
:1047E00007105169137E01390133516113765DF869
:1047F000044B7047137E51690133013113765DF824
:10480000044B5161704743F00403DAE753695DF8E4
:10481000044BC83B5361704753695DF8044BC83380
:1048200053617047137C03F003030029CBD043F09E
:104830000403C8E788D40120244B5A6AD2E9001047
:10484000D3680968006810B41842946801EA04014A
:1048500034D0137C03F0030309BB43F00803990829
:10486000013B11740D2B0ED8DFE803F0100722076F
:104870000D1C10101C0D072207105169137E013901
:104880000133516113765DF8044B7047137E516913
:104890000133013113765DF8044B5161704743F0E9
:1048A0000403DAE753695DF8044BC83B5361704772
:1048B00053695DF8044BC83353617047137C03F0B0
:1048C00003030029CBD043F00403C8E788D40120B8
:1048D000244B9A6BD2E90010D3680968006810B4C1
:1048E0001842946801EA040134D0137C03F00303F6
:1048F00009BB43F008039908013B11740D2B0ED836
:10490000DFE803F0100722070D1C10101C0D072212
:1049100007105169137E01390133516113765DF837
:10492000044B7047137E51690133013113765DF8F2
:10493000044B5161704743F00403DAE753695DF8B3
:10494000044BC83B5361704753695DF8044BC8334F
:1049500053617047137C03F003030029CBD043F06D
:104960000403C8E788D40120244B5A6BD2E9001015
:10497000D3680968006810B41842946801EA040119
:1049800034D0137C03F0030309BB43F008039908F8
:10499000013B11740D2B0ED8DFE803F0100722073E
:1049A0000D1C10101C0D072207105169137E0139D0
:1049B0000133516113765DF8044B7047137E5169E2
:1049C0000133013113765DF8044B5161704743F0B8
:1049D0000403DAE753695DF8044BC83B5361704741
:1049E00053695DF8044BC83353617047137C03F07F
:1049F00003030029CBD043F00403C8E788D4012087
:104A0000244B1A6CD2E90010D3680968006810B40E
:104A10001842946801EA040134D0137C03F00303C4
:104A200009BB43F008039908013B11740D2B0ED804
:104A3000DFE803F0100722070D1C10101C0D0722E1
:104A400007105169137E01390133516113765DF806
:104A5000044B7047137E51690133013113765DF8C1
:104A6000044B5161704743F00403DAE753695DF882
:104A7000044BC83B5361704753695DF8044BC8331E
:104A800053617047137C03F003030029CBD043F03C
:104A90000403C8E788D40120244B9A6CD2E90010A3
:104AA000D3680968006810B41842946801EA0401E8
:104AB00034D0137C03F0030309BB43F008039908C7
:104AC000013B11740D2B0ED8DFE803F0100722070D
:104AD0000D1C10101C0D072207105169137E01399F
:104AE0000133516113765DF8044B7047137E5169B1
:104AF0000133013113765DF8044B5161704743F087
:104B00000403DAE753695DF8044BC83B536170470F
:104B100053695DF8044BC83353617047137C03F04D
:104B200003030029CBD043F00403C8E788D4012055
:104B3000244B1A6DD2E90010D3680968006810B4DC
:104B40001842946801EA040134D0137C03F0030393
:104B500009BB43F008039908013B11740D2B0ED8D3
:104B6000DFE803F0100722070D1C10101C0D0722B0
:104B700007105169137E01390133516113765DF8D5
:104B8000044B7047137E51690133013113765DF890
:104B9000044B5161704743F00403DAE753695DF851
:104BA000044BC83B5361704753695DF8044BC833ED
:104BB00053617047137C03F003030029CBD043F00B
:104BC0000403C8E788D40120244B9A6DD2E9001071
:104BD000D3680968006810B41842946801EA0401B7
:104BE00034D0137C03F0030309BB43F00803990896
:104BF000013B11740D2B0ED8DFE803F010072207DC
:104C00000D1C10101C0D072207105169137E01396D
:104C10000133516113765DF8044B7047137E51697F
:104C20000133013113765DF8044B5161704743F055
:104C30000403DAE753695DF8044BC83B53617047DE
:104C400053695DF8044BC83353617047137C03F01C
:104C500003030029CBD043F00403C8E788D4012024
:104C6000244B1A6ED2E90010D3680968006810B4AA
:104C70001842946801EA040134D0137C03F0030362
:104C800009BB43F008039908013B11740D2B0ED8A2
:104C9000DFE803F0100722070D1C10101C0D07227F
:104CA00007105169137E01390133516113765DF8A4
:104CB000044B7047137E51690133013113765DF85F
:104CC000044B5161704743F00403DAE753695DF820
:104CD000044BC83B5361704753695DF8044BC833BC
:104CE00053617047137C03F003030029CBD043F0DA
:104CF0000403C8E788D40120244B9A6ED2E900103F
:104D0000D3680968006810B41842946801EA040185
:104D100034D0137C03F0030309BB43F00803990864
:104D2000013B11740D2B0ED8DFE803F010072207AA
:104D30000D1C10101C0D072207105169137E01393C
:104D40000133516113765DF8044B7047137E51694E
:104D50000133013113765DF8044B5161704743F024
:104D60000403DAE753695DF8044BC83B53617047AD
:104D700053695DF8044BC83353617047137C03F0EB
:104D800003030029CBD043F00403C8E788D40120F3
:104D900043782DE9F04104462DED028B82B0002BC3
:104DA00000F0A1800378002B00F0848003690F4697
:104DB00082690221DFF8D48193424269D8F8005019
:104DC000C8BF8361C368D8F800609342B8BF43612D
:104DD000D0E9012313448360C369ED1A036A604874
:104DE000F61A1EF0EDFE37B1384622F0A9FA014658
:104DF00038461EF0E5FEA36922695A495A481CF05C
:104E0000F3F86369E268594957481CF0EDF807EE7A
:104E1000905A5749B8EE675AD4ED027A5248B8EE24
:104E2000E76AD4ED017AB7EEC55A524FB8EEE77A89
:104E300007EE906AB7EEC66AB8EE678AB7EEC77A31
:104E40009FED414BB7EEC88A85EE043B88EE042BFC
:104E500087EE037B86EE025B53EC172B8DED005B38
:104E60001CF0C2F8032144481EF0AAFEA7FB05313E
:104E70000A22002389093C481CF0C4F803213F485A
:104E80001EF09EFE3E4B9E424FD84EF660239E4241
:104E90003ED8A7FB067100230A22334889091CF07B
:104EA000B1F8012137481EF08BFE012136481EF073
:104EB00087FE09E0DFF8D48042F20F7283618360DD
:104EC000D8F80030426103620023D8F8002042F293
:104ED0000F7163602370E261C4E9031302B0BDEC9B
:104EE000028BBDE8F081294942F20F728361836031
:104EF0000D68086801212562E26063602370E0614B
:104F00006170C4E9043202B0BDEC028BBDE8F081EF
:104F10009FED0F0B0121144888EE000B1CF088F860
:104F200001211B481EF04CFEBFE79FED0B0B01213A
:104F30000D4888EE000B1CF07BF8012115481EF08F
:104F40003FFEB2E7AFF300800000000000408F405A
:104F500000000000004CED400000000040774B4195
:104F6000903F0020F024002010330120FC2400207A
:104F700008250020D34D62101C250020202500208C
:104F800080EE360030430020844C0020F4DD012008
:104F9000242500204C22002038B5037B04460D4612
:104FA00093B900680F4AA36812680F49D31AA26028
:104FB000A1FB03139B09B0FBF3F00023A84223607D
:104FC0002CBF401B002038BD1CF0D6FC237B1BB936
:104FD000206800232373E5E7D4E900329B1A1844C4
:104FE000F7E700BFF4DD0120D34D621000000000A0
:104FF0005B4B1B6830B5044683B08362092938D8FF
:10500000DFE801F04716163705272737055790F8D0
:105010005130042B0AD00020A17C84F8520084F87F
:105020005310002A78D1042384F8513003B030BDE6
:1050300090F85130022BF9D0407C002184F85200C6
:1050400084F85310002A5FD1022384F8513003B052
:1050500030BD90F85130032BE8D00020A17C84F8BB
:10506000520084F85310002A5ED1032384F8513093
:10507000DCE790F85130002BD8D00025026C39497C
:10508000A0F85250384800951BF0AEFF84F85150FC
:10509000CCE790F85130012BC8D0407C002184F837
:1050A000520084F85310002A4ED1012384F8513065
:1050B000BCE790F85130052B21D0417CB6EE084B6F
:1050C00006EE101A817C07EE101AB8EEC66BB8EE29
:1050D000C77B26EE046B9FED205BFCEEC66B27EED4
:1050E000057B16EE900A84F85200FCEEC77B17EEA3
:1050F000901A84F85310FAB9052384F8513000232C
:1051000084F8303003B030BD0220226C1549009085
:1051100015481BF069FF97E70420226C11490090A5
:1051200011481BF061FF7EE70320226C0D490090BF
:105130000D481BF059FF98E70520226C09490090A3
:1051400009481BF051FFD7E70120226C0549009068
:1051500005481BF049FFA8E79A9999999999E93F61
:10516000F4DD01202825002010330120F0B587B0A0
:105170001EF000FDC4B2632C00F0A580612C00F08D
:10518000CD80672C00F0CE806C2C00F0AC806D2CB4
:1051900073D06E2C00F0D680A4F10A03692B00F2C4
:1051A000A780DFE813F08E00A500A5008E00A50003
:1051B000A500A500A500A500A500A500A500A500C7
:1051C000A500A500A500A500A500A500A500A500B7
:1051D000A500A500A500A500A500A500A500A500A7
:1051E000A500A500A500A500A500A500A500A50097
:1051F000A5008E00EE001001230151012C01420197
:10520000560165019601A500A500A500A500A50011
:10521000A500A500A500A500A500A500A500A50066
:10522000A500A500A500A500A500A500A500A50056
:10523000A500A500A500C301A500A500A500A50027
:10524000A500A500A500A500A500A500A500A50036
:10525000A500A500A500A500A500A500A500A50026
:10526000A500A500A500A500A500A500A500A50016
:10527000A500C901A5000D0252021EF037FC00284E
:1052800036DD1EF077FC3038AD4CC3B2AD49684610
:10529000052B9CBF226813701BF0EEFF694603A824
:1052A0001CF008F8236803A819781CF075F801466B
:1052B000A5481BF04BFE03A81CF018F868461CF02C
:1052C00015F807B0F0BDA14C1B21A148237883F04D
:1052D000010323701EF074FC21789B4807B0BDE8E1
:1052E000F0401BF059BE1EF001FC002800F3B08115
:1052F00098499548FDF752FB214600230A2292481F
:105300001BF080FE94499048FDF748FB01E01EF039
:1053100031FC1EF0EBFB0028F9D1D2E78F4C1F21A6
:105320008F48D3E71EF0E2FB00287FF735AF1EF071
:1053300021FC3038C1B20529C3D801228948FFF7C2
:1053400057FEBEE71EF0D2FB80B11EF0ADFBC0B22F
:1053500032280BD11EF00EFC834C844923787A4806
:1053600083F001032370FDF719FBB5E7804C16218C
:10537000804A2378804883F00103237082F88334C5
:10538000A8E77E4E1CF0F8FA04463578002D00F0B0
:105390008081012D00F09781022D00F0AE811CF07C
:1053A000EBFA774905466848FDF7F8FA291B002310
:1053B0000A2265481BF026FE7249634807B0BDE823
:1053C000F040FDF7EBBA704E1CF0D6FA0446357883
:1053D000002D00F06B81012D00F08281022D00F084
:1053E00099811CF0C9FA69490546DCE700230121CF
:1053F00067481A4607B0BDE8F04009F009B9654CA6
:105400000023634E0F21251D1A46304609F000F98E
:10541000A5423FF456AF002314F8011F30461A4648
:1054200009F0F6F8A542F6D14BE75A4C0F21584E39
:10543000251D01230022304609F0EAF8AC423FF472
:1054400040AF14F8011FF4E7012300225048194629
:10545000D0E7504C0F214E4E251D0123BB22304674
:1054600009F0D6F8AC423FF42CAF14F8011FF4E772
:10547000484D0023464F0F212E1D2C4638461A4614
:1054800009F0C6F8A64208D0002314F8011F3846D8
:105490001A4609F0BDF8A642F6D13F493F4A404BB3
:1054A00048681268A3FB02329623920C03FB02F2B7
:1054B0004B681B1A9A42FBD80F21354E0123BB22A1
:1054C000304609F0A5F8AC423FF4FBAE15F8011FD9
:1054D000F4E7344C8823012533491B4884F8A53070
:1054E00084F8305184F82F51FDF758FA29462046A8
:1054F00008F056FD002840F0C7802C491248FDF7FF
:105500004DFAE02301251048294984F8A53084F894
:10551000305184F82F51FDF741FA2946214808F00F
:105520003FFD002840F0AE80204946E74FF0E023E1
:10553000204AC3F80C2DC4E61F4C20490EE700BFDB
:105540006CDA0120A81A00201033012067DE012048
:10555000501A0020EC1C0020141D002051DE0120F8
:105560006C1A002074CF012063DE0120C01A0020D5
:1055700062DE0120F8810120D81A00204ADE0120D5
:10558000F41B0020FC1B00204BDE0120A01C00208F
:1055900074DC0120A0230020001000E00C33012067
:1055A00083DE1B4364350120A81C0020C01C0020A2
:1055B000D81C00200400FA0569DE0120F01A002042
:1055C0005B495C48FDF7EAF95B495C4800230C68DD
:1055D00042F20F724360C4610C680370836004621E
:1055E0000C68C0E90323C0E905235548C4610C6871
:1055F00043600370836004620C68C0E90323C0E960
:1056000005235048C4610C68436003708360C0E99F
:105610000323C0E9052304624B480C684360C4615E
:105620000C680370046283600C680968C0E9052394
:10563000C0E903234548C0E9032343600370426186
:1056400083600162C0E906343BE6414C414985E68E
:105650001EF090FAC0B2A0F13004E3B2052B3FF681
:1056600030AE00EB80033C4A3C4903EB83033148F6
:105670005B00603B1374FDF791F932212D4804FB68
:1056800001F12BE6364998E635492A48FDF786F9B7
:1056900037E734492748FDF781F901232A460F21CE
:1056A000314808F0B5FF0123337078E62F492148CF
:1056B000FDF774F901232A460E212B4808F0A8FFB4
:1056C000012333708DE62A491A48FDF767F92B4606
:1056D000ED220F21244808F09BFF022333705EE681
:1056E00024491448FDF75AF92B46ED220E211E4895
:1056F00008F08EFF0223337073E61F490D48FDF753
:105700004DF900230F2118481A4608F081FF0023A5
:10571000337044E619490748FDF740F900230E218C
:1057200011481A4608F074FF0023337059E600BF91
:10573000181B002010330120F4DD012004DA0120C1
:1057400028DA012084DC0120A8DC012044D90120D2
:1057500068DE0120381B002074CF01208C1A002045
:10576000C81C0020501B002074DC0120001C0020FD
:10577000801B00202C1C0020C41B0020701C00205B
:105780001A4A30B592F8983083B0C3F19603092BCA
:105790001BDC01AB18461EF09DFFC1B2022912D0DE
:1057A000032908BF042101221148FFF721FC0D2025
:1057B0001CF036F901460D20B1FA81F149091CF0BF
:1057C00005F903B030BD0521EDE792F88C4001AB3F
:1057D00092F88D10002014440131657811446070F6
:1057E000184621F0EBFC65700346D3E774DB01201B
:1057F00074CF01202DE9F047DFF8A89241F28832FA
:10580000416A82B0D9F8003004465B1A934200F234
:10581000AC80D9F8003040F6B832A16A5B1A9342E6
:1058200000F28F80D9F80030216AA28D5B1A9A426B
:1058300075D2D9F80030274604F1130604F11F0A87
:10584000DFF86482236297F84C30023B012B03D8C7
:1058500094F82E30002B69D197F84D302046217CEA
:10586000C3EB033297F84E50A8FB02320123D20952
:1058700001FB02F2A8FB02127178C2F3CF1208F00A
:10588000C7FE217CC5EB053235460123A8FB020289
:105890002046D20901FB02F2A8FB0212B178C2F342
:1058A000CF1208F0B5FE0123002215F8031F204691
:1058B00008F0AEFE554507F105072E46C3D194F812
:1058C0002E3083F0010384F82E3043BBD9F800203A
:1058D0000121A08D84F82F3002EB5003628E84F8F2
:1058E0003010A3EB52036363D9F800209A421AD90F
:1058F0000123274604F10C082646DFF8ACA184F802
:105900002F3097F850300537002B40F09C8003363D
:10591000B045F6D194F82F302BB1636B3FE094F88B
:105920003030002B36D102B0BDE8F087F51C16F8F8
:10593000011F01230022204608F06AFEAE42F6D184
:10594000B8E7D9F8002094F85130A262002B3FF458
:1059500069AF0025226C5149A4F852505048009577
:105960001BF042FB84F851505CE790F84C30032B5D
:105970003FF44FAF817C0325002280F84E1080F861
:105980004D2046490095C26B45481BF02DFB84F81D
:105990004C503EE794F82F20636B002AA4D0628E0F
:1059A000D9F8001013448B42BDD24FF0000A2646AE
:1059B00004F1130504F11F0984F830A096F8503063
:1059C000DFF8E4804BB9EF1C4F453D4606F1050674
:1059D000A9D096F85030002BF5D096F84C30023B09
:1059E000012B4FD996F84D30204696F84E70C3EBF8
:1059F00003326978A8FB0232237CD20903FB02F24E
:105A0000A8FB02320123C2F3CF1208F001FEA978ED
:105A1000C7EB07322F462046A8FB0232237CD2096F
:105A200003FB02F2A8FB02320123C2F3CF1208F0FB
:105A3000EFFD0123002217F8031F204608F0E8FDC0
:105A400086F850A0C0E7E57C2046317D0123002286
:105A500008F0DEFD717D01232046002208F0D8FD0C
:105A6000B17DC5EB05322046AAFB0232237CD20968
:105A700003FB02F2AAFB02320123C2F3CF1208F0A9
:105A8000C7FD44E7EF1C15F8011F01230022204643
:105A900008F0BEFDBD42F6D1D2E700BF28250020A8
:105AA00010330120F4DD012081808080000000009F
:105AB00006EE902A00F588622DE9F043B8EEE61B69
:105AC00006EE903A044600F58467B8EEE64B00F522
:105AD000826004F586662DED028B83B0C4F848140D
:105AE000DDED0C6ADDED0F5AB8EEE62BDDED0D6A4B
:105AF000B8EEE55B119BB8EEE63BDDED0E6A9FED7F
:105B0000AA8BB8EEE66B9FEDAA7B9FEDAB0BA6EEE2
:105B1000087BDDED106AB8EEE66B25EE005B26EE45
:105B2000006B21EE001B24EE004B32EE052B33EE12
:105B3000063B9FEDA30B80ED001B07ED024BB4EE7F
:105B4000C07B02ED025BF1EE10FA87ED002BA8BFDF
:105B500037EE407B82ED006BB5EEC07B06ED023B7D
:105B6000F1EE10FA03D59FED966B37EE067B94F8B5
:105B700083249FED956B27EE067B86ED007BC4F8B2
:105B80006834002A40F08480954D2A68D4F80014C7
:105B9000521AC4F888242A68C4F800242A68C4F871
:105BA000902494F8812412B9012284F884240122DB
:105BB00013F0010503F0020803F0040984F88224BD
:105BC00084F88124C3F3C102C4F8782431D0B8F139
:105BD000000F3DD0B9F1000F49D02DB3D4F878347F
:105BE000012B40F39A8016ED027BB5EE407BF1EE7F
:105BF00010FA00F08B8004F58E6597ED000B80EEB7
:105C0000070B1EF039FA9FED727B20EE070B012186
:105C100094F8833485ED000B84F88014002B40F059
:105C20009280704C84ED000B03B0BDEC028BBDE89C
:105C3000F08311216C481DF0C3FF29466B481BF00F
:105C4000ABF904216A481DF0BBFFB8F1000FC1D1C8
:105C5000102168481DF0B4FF414664481BF09CF9D0
:105C6000042163481DF0ACFFB9F1000FDCD1132112
:105C700061481DF0A5FF00215C481BF08DF904214F
:105C80005B4803B0BDEC028BBDE8F0431DF098BF4C
:105C9000534D022159481DF093FF002329680A2221
:105CA00052481BF0AFF9B4F8982455494F481BF0FF
:105CB0009BF9D4F8003429680A224C48C91A0023F9
:105CC0001BF0A0F901214F481DF07AFFD4F84814C9
:105CD0004D4B4648A3FB01234FF47A729B0902FB0C
:105CE00013114A4B0A22A3FB01310023C9081BF000
:105CF00089F9012143481DF063FF02213B4896EDDD
:105D0000000B1BF095F9D4F868343EE79FED2A6B41
:105D100037EE067B06ED027B6DE794F88334002BAB
:105D20003BD00E213A4804F58E651DF049FFD4F8AA
:105D300078142E481BF030F995ED000B9FED267B73
:105D400020EE070B63E72F48264C1DF039FF022198
:105D5000264895ED000B1BF06BF9B6EE007B94ED39
:105D6000006B95ED000B36EE475BB4EEC50BF1EE24
:105D700010FA07D936EE077BB4EEC70BF1EE10FA36
:105D8000FFF650AF234919488DED000B53EC162B4D
:105D90001BF02AF995ED000B44E7022117481DF08E
:105DA0000FFFBEE7AFF300802D431CEBE2361A3F36
:105DB0000000000000208C407B14AE47E17A843F55
:105DC000000000000020AC409A9999999999B93F38
:105DD000F8C1631ADCA54CC0CDCCCCCCCCCCEC3F0C
:105DE000F4DD0120E0800120082400201033012090
:105DF000A42500201C24002030240020903F0020F7
:105E0000F4230020E84F0020D34D6210CDCCCCCC41
:105E1000442400205424002070B5044686B01BF0B2
:105E2000ABFDD4F80834A568C01A072DC4F88C045B
:105E30006FD03C2D40F0D180E07FA27F617F42EAAD
:105E4000002294F8235094F8330094F8223041EA69
:105E5000022194F8322043EA052394F8315042EAB3
:105E6000002294F8570094F855E045EA022594F88A
:105E7000562094F82AC042EA002294F82F004EEAF5
:105E8000022E94F82B204CEA022C94F82E2042EAA1
:105E9000002294F8540040EA0E20059094F8300057
:105EA00040EA0520029094F8270094F8265045EA2D
:105EB000002594F8290040EA0C2094F82DC04CEA03
:105EC000022C94F83B20049294F83A20039294F820
:105ED000212042EA032294F8253043EA052394F86E
:105EE000245045EA032394F8205045EA0222257FF6
:105EF00045EA012194F82C5045EA0C25019594F8C7
:105F0000285045EA002520460095FFF7D1FD06B050
:105F100070BD94F8333094F8320094F8312040EAA0
:105F2000032094F8303094F8375042EA002294F875
:105F3000361094F8830443EA022394F83B2041EAA4
:105F40000521E57E06EE103A94F83A3043EA022342
:105F500094F83520B8EEC66B42EA012294F8391065
:105F600041EA032194F8343043EA022304F58C62B9
:105F700005EE103A94F838309FED377BB8EEC55BEC
:105F800043EA0123A17E26EE076B41EA0521384D45
:105F900025EE075B07EE103A637EB8EEC77B43EA57
:105FA0000123217E9FED2E4B41EA032694F82F30EA
:105FB00027EE047B84F84C3404F58A6383ED005BA0
:105FC00002ED026B82ED007BF0B92A682B68C4F801
:105FD0000424C4F8943406B070BD112125481DF086
:105FE000EFFD00231022E9B223481BF00BF8052136
:105FF00022481DF0E5FD0023102221791E4806B03D
:10600000BDE870401AF0FEBF02211D481DF0D8FD0A
:10601000296800230A2218481AF0F4FF0C211948B5
:106020001DF0CEFDD4F8043429680A221248C91A9A
:1060300000231AF0E7FF012113481DF0C1FD07EE10
:10604000906A02210C48B8EE677B9FED070B87EE44
:10605000000B1AF0EDFFB8E748AFBC9AF2D77A3ED2
:10606000FCA9F1D24D62503F0000000000408F407B
:10607000F4DD0120D823002010330120EC23002080
:10608000903F0020C8230020E84F0020B52970B5BC
:106090000D4604462BD0622918D02378022B07D056
:1060A000033B052B11D8DFE803F081869B5B724C24
:1060B000237C0321627C65602B442170DBB21A448F
:1060C000237494F8833462747BBB70BD0378012B16
:1060D000E4D10221002290F8833401700282002B67
:1060E000F3D005216948BDE870401DF069BD4369E2
:1060F000002BD2DA012303701BF03EFC94F88334AA
:10610000C4F80804002BE0D0022161481DF058FDBE
:10611000604900230A2209685F481AF073FF0921C9
:106120005E48BDE870401DF04BBD03215C481DF08A
:1061300047FD2946002310225748BDE870401AF059
:1061400061BF637CAB4265D194F88334002B40F08F
:1061500097802046FFF760FE4FF0FF33636170BD0C
:10616000237CEAB2617C1344DBB219442374636973
:106170006174E11801330A7694F883246361002A7C
:1061800074D1E2689A42A0D10723237070BD237CAA
:10619000AB4255D1082294F883342270002B94D05E
:1061A00040493D48BDE87040FCF7F8BB237C042122
:1061B000627CA56080E7237C0520627C2B4494F8F8
:1061C0008314E560DBB220701A44237462740029E2
:1061D0003FF47BAF34493048BDE87040FCF7DEBB8C
:1061E000237C0620E1682B44627C01EB05212070B2
:1061F000DBB20020E1601A4494F8831460612374D8
:10620000627400293FF461AF03212848BDE8704063
:106210001DF0D6BC00254FF0FF3302211C486361FE
:1062200025701DF0CDFC1B492B460A2209681A482F
:106230001AF0E8FE10211E48BDE870401DF0C0BCF9
:1062400000254FF0FF3302211148636125701DF0D6
:10625000B7FC10492B460A2209680F481AF0D2FEF3
:1062600010211448BDE870401DF0AABC0A4812492C
:10627000FCF794FB294608481AF08EFE636980E714
:106280000E490548FCF78AFB63E700BFAC240020F9
:10629000903F0020F4DD012010330120A0240020D5
:1062A000B4240020C0240020B8240020BC240020F6
:1062B000DC240020C4240020E84F0020D824002043
:1062C0009FED9D7B90ED042B9FED9D3B9FED9E1BD5
:1062D00022EE072B90ED164B90ED0E5B22EE032B7A
:1062E00024EE014B25EE075B90ED086B10B532EE06
:1062F000067B044680ED0A4B37EE447B80ED0E5B57
:10630000B5EEC07B80ED042BF1EE10FA03D59FEDC6
:10631000904B37EE047B9FED904BB4EEC47BF1EED7
:1063200010FAC0F2F7809FED8E4BB4EEC47BF1EE15
:1063300010FA00F2EF80B1EE477B9FED854BB4EE93
:10634000C47BF1EE10FAC8BF37EE447B9FED864B5D
:1063500084ED067BB4EEC47BF1EE10FA05D59FED1B
:106360007C4B37EE047B84ED067BB0EEC74B9FED94
:10637000803BB4EEC34BF1EE10FA40F1D7809FEDB5
:106380006E3BA7EE036B9FED724B9FED777BB4EEF8
:10639000C46BF1EE10FAC8BF36EE446BB4EEC76BB7
:1063A00084ED086BF1EE10FA05D59FED697B36EEB2
:1063B000076B84ED086BB7EEC55B32EE067B94EDA0
:1063C000124BB7EEC55A9FED6C1B34EE454B9FED5B
:1063D000602B24EE016BB4EEC27B94ED023B9FED8B
:1063E000680BF1EE10FAA3EE006BC8BF37EE427BEC
:1063F00084ED004BB5EEC07BF1EE10FA84ED026B3C
:1064000003D59FED536B37EE067B0C2162489FED61
:106410005E6B27EE067B84ED0C7B1DF0D1FB5F48A5
:106420001AF0C6FD09215E481DF0CAFB02215B4837
:1064300094ED160B1AF0FCFD58481AF0B9FD0A212C
:1064400058481DF0BDFB0221544894ED120B1AF080
:10645000EFFD52481AF0ACFD0C2153481DF0B0FB83
:106460004E481AF0A5FD132150481DF0A9FB02214A
:106470004A4894ED040B1AF0DBFD48481AF098FDE9
:1064800006214B481DF09CFB0221444894ED0E0B65
:106490001AF0CEFD41481AF08BFD0F2145481DF042
:1064A0008FFB3E481AF084FD0F2143481DF088FB06
:1064B00002213A4894ED080B1AF0BAFD37481AF059
:1064C00077FD0B213D481DF07BFB0221334894ED05
:1064D000000B1AF0ADFD31481AF06AFD1121384861
:1064E0001DF06EFB02212D4894ED020B1AF0A0FD69
:1064F0002A481AF05DFD0E2132481DF061FB022191
:10650000264894ED0C0B1AF093FD2448BDE810408A
:106510001AF04EBD9FED124BB4EEC47B9FED0C4BB9
:10652000F1EE10FA05DD34EE477B06E79FED183BF0
:1065300027E737EE047BFEE69A9999999999B93F36
:10654000399D52A246DF91BF399D52A246DF913F4D
:10655000182D4454FB211940182D4454FB21F9BF38
:10656000182D4454FB21F93F182D4454FB2119C028
:106570000AD7A3703D0AC73F333333333333D33F96
:10658000666666666666E63FF8C1631ADCA54C403F
:106590009A9999999999C93F2C2900201033012083
:1065A0003C2900204829002054290020642900208B
:1065B000782900208029002090290020A02900208F
:1065C000AC290020C02900202DE9F047844C84B07C
:1065D0001BF0D2F9012394F89850824EC5F196052C
:1065E00070609D42337300F3B180002D00F39F80F3
:1065F0007D4B012293F8811483F8802409B983F834
:1066000084240122794F7A4C83F881243A68C3F8B4
:10661000902494F86030002B36D176481EF056F85E
:10662000754D94F8603085ED000B002B68D1734BED
:1066300093F83030042B00F0C680714A403595ED58
:10664000000B9FED637B137820EE070B85ED000BAD
:10665000002B5ED00A22002339686A481AF0D2FC67
:10666000694968481AF0C0FC01A820F069FE01AB36
:10667000023818441EF02EF8014662481AF08CFCCD
:1066800060481AF095FC44E060481EF023F807EEDD
:10669000900A5F4BB8EEE77B5E4D5F4829469FED61
:1066A0004E6B27EE067BBDEEC77B17EE102A9A5C79
:1066B000FCF75CF959481EF009F84E4884ED120BBE
:1066C0001EF004F8B5F90030204606EE103AB5F990
:1066D000023007EE103AB8EEC66BB8EEC77B84ED19
:1066E000160B84ED046B84ED0E7BFFF7E9FD94F847
:1066F0006030002B91D0404BD4E90C01C3E900017C
:1067000094ED020B464D3E4A137885ED000B002BAD
:10671000A0D11BF031F9337B23B1D6E900329B1AAB
:10672000034433600023337304B0BDE8F08794F86A
:106730009550002394F8961001A825440131214476
:106740006C786B7020F03AFD6C7051E794F894709F
:106750004FF0000994F895102744DFF89880194409
:1067600097F801A04046214487F8019020F026FDCB
:10677000022D87F801A0DAD094F8937008F1080090
:1067800094F894102744013197F801A0214487F828
:10679000019020F013FD042D87F801A0C7DD94F8C7
:1067A000915094F89200254401306F78204485F888
:1067B00001901DF08FFF6F7094F89850C8F810008A
:1067C000C5F1960511E7154840351DF07FFF9AE7A2
:1067D000CDCCCCCCCCCCEC3F9A9999999999B93F36
:1067E00074DB0120FCCF0120F8810120F4DD0120C1
:1067F000F0800120A08C012028860120088901203A
:1068000062DE012010330120741700204CDA0120D1
:10681000BC23002038D90120C8D80120A88C012031
:10682000688601200B484FF0FF0C01210F220378EE
:1068300080F80DC0437190F801C0837283780172B3
:106840004FF4967180F806C080F80BC0C3710373D3
:106850001BF02CBB5C46012070B501201BF07CF9BD
:1068600004460220E4B21BF077F940F6641360F3AB
:106870000F24A4B29C421C4C25D0022201211B48AB
:1068800004F10F05C4F596761BF010FB0F224FF4B0
:10689000967117481BF00AFBA0191BF05DF904F86C
:1068A000010BAC42F8D12A2112481DF089F94FF4AE
:1068B000C87111480D221BF0F9FA23210F48BDE8D9
:1068C00070401DF07DB904F10F05C4F59676A0194E
:1068D0001BF042F904F8010BAC42F8D12221084820
:1068E000BDE870401DF06CB95C460120DC31012030
:1068F0009023002060210020044101208C210020F1
:10690000B0210020D0E90021C3681268096810B4E2
:106910001942846802EA040234D0037C03F00303C2
:106920000ABB43F008039A08013B02740D2B0ED8F2
:10693000DFE803F0100722070D1C10101C0D0722C2
:1069400007104269037E013A0133426103765DF824
:10695000044B70474269037E01325DF8044B0133FA
:1069600042610376704743F00403DAE743695DF858
:10697000044BC83B4361704743695DF8044BC8331F
:1069800043617047037C03F00303002ACBD043F03C
:106990000403C8E70B4610B5362800F29782DFE8FB
:1069A00010F08C0282027902700267025E025502C8
:1069B0004C0243023A02310228021F02BF01B60113
:1069C000AD01A4019B0192018901800177016E0153
:1069D00065015C0153014A01410138012F01260183
:1069E0001D0113010901FF00F500EB00E100D700D4
:1069F000CD00C300B900AF00A5009B009100870047
:106A00007D00730069005F0055004B0041003700B6
:106A1000C84C0422C8493620C4F8D8301BF058FAB4
:106A2000012010BDC34C0422C4493520C4F8D43021
:106A30001BF04EFA012010BDBE4C0422C049342088
:106A4000C4F8D0301BF044FA012010BDB94C042228
:106A5000BC493320C4F8CC301BF03AFA012010BDF9
:106A6000B44C0422B8493220C4F8C8301BF030FAC4
:106A7000012010BDAF4C0422B4493120C4F8C43009
:106A80001BF026FA012010BDAA4C0422B049302088
:106A9000C4F8C0301BF01CFA012010BDA54C042224
:106AA000AC492F20C4F8BC301BF012FA012010BDF5
:106AB000A04C0422A8492E20C4F8B8301BF008FAD4
:106AC000012010BD9B4C0422A4492D20C4F8B430F1
:106AD0001BF0FEF9012010BD964C0422A0492C2089
:106AE000C4F8B0301BF0F4F9012010BD914C042221
:106AF0009C492B20C4F8AC301BF0EAF9012010BDF2
:106B00008C4C042298492A20C4F8A8301BF0E0F9E4
:106B1000012010BD874C042294492920C4F8A430D8
:106B20001BF0D6F9012010BD824C04229049282088
:106B3000C4F8A0301BF0CCF9012010BD7D4C04221C
:106B40008C492720C4F89C301BF0C2F9012010BDED
:106B5000784C042288492620C4F898301BF0B8F9F4
:106B6000012010BD734C042284492520C4F89430C0
:106B70001BF0AEF9012010BD6E4C04228049242088
:106B8000C4F890301BF0A4F9012010BD694C042218
:106B90007C492320C4F88C301BF09AF9012010BDE9
:106BA000644C042278492220C4F888301BF090F904
:106BB000012010BD5F4C042274492120C4F88430A8
:106BC0001BF086F9012010BD5A4C04227049202088
:106BD000C4F880301BF07CF9012010BD554C042214
:106BE0006C491F20E3671BF073F9012010BD514C65
:106BF000042269491E20A3671BF06AF9012010BD19
:106C00004C4C042265491D2063671BF061F901208B
:106C100010BD484C042262491C2023671BF058F920
:106C2000012010BD434C04225E491B20E3661BF08B
:106C30004FF9012010BD3F4C04225B491A20A36686
